:05002600A5A5A5A5A59C
:0E093100052734431010010522344310100135
:1009B0005396EF43962C5395C3439500D292D2930E
:1009C000D294C29553CAFF43CA2053C9DF43C9001A
:1009D000D2CD53B2F743B20053B1F743B100D2B214
:0A09E000120C66C20AC2CDD29222A8
:10071F007BFF7A007926C003C002C0017B007A00FC
:10072F00794BA801AC02AD03D001D002D0037E00FB
:10073F007F0512047A7B007A00794B7548057F306C
:10074F00120A247B007A00794B7541057F1012093C
:10075F00EA755000E550C394055010AF50744B2FFD
:10076F00F8E6FFEFB4A504055080E9E55064056095
:06077F00037F01227F0050
:010785002251
:040BB9008F598D5A69
:100BBD00C292AF59120C498F5BAF5A120C49D292A7
:020BCD00AF5B1C
:010BCF002203
:02000E008F65FC
:10001000C292AF65120C497FFF120C498F66D292D3
:02002000AF66C9
:0100220022BB
:0809EA008F3D8B3E8A3F8940DE
:1009F200C292AF3D120C498F42754300E543C39545
:100A020041501A7FFF120C49AB3EAA3FA940AE43A8
:100A12008E82758300EF1204B9054380DFD292AF54
:010A22004291
:010A230022B0
:080A24008F448B458A46894787
:100A2C00C292AF44120C498F49754A00E54AC395EE
:100A3C00485019AB450547E547AA467002054614D0
:100A4C00F91204A0FF120C49054A80E0D292AF497A
:010A5C002277
:0608EE008B1C8A1D891E0F
:1008F400C2CDAB1CAA1DA91E7548207FA0120A24D4
:10090400D2CD30B2FD7F0712000E8F1FAD1F7F279F
:10091400120BB9E51F30E40A7DFF7FE1120BB97FAA
:0C0924001022E51F30E5037F20227FFF3A
:0109300022A4
:060A5D008B518A528953FF
:100A63007F0712000E8F54AD547F27120BB9E55444
:100A730030E618AB51AA52A9537541207F61120980
:0D0A8300EA7DFF7FE1120BB97F00227F01A9
:010A90002243
:10097300C2CD7B007A0079227548057F2A120A24AA
:100983007D017F21120BB97D017F22120BB97D28D6
:100993007F25120BB97D207F31120BB97D0F7F2686
:0D09A300120BB97D0F7F20120BB9D2CD22AF
:1008A300C2CD7B007A0079277548057F30120A2470
:1008B3007B007A0079227548057F2A120A247D017C
:1008C3007F21120BB97D017F22120BB97D1A7F2480
:1008D300120BB97D287F25120BB97D0F7F26120BD2
:0B08E300B97D0E7F20120BB9D2CD2290
:100B3400526F636B65725F4C5F58203D20257509C9
:100B440000526F636B65725F4C5F59203D202575C1
:030B54000D0A0087
:1007ED007B017A007930C003C002C0017BFF7A0B18
:1007FD0079348B0B8A0C890D85350E85360FD0011A
:10080D00D002D0031200AA7B017A007930120ABE01
:10081D007B017A007930C003C002C0017BFF7A0BE7
:10082D0079458B0B8A0C890D85370E85380FD001D4
:10083D00D002D0031200AA7B017A007930120ABED1
:01084D002288
:100C3900852C35852D36852E37852F381207ED22DF
:03000000020612E3
:0C061200787FE4F6D8FD7581730206596C
:0B0C7300007571191571AF71EF70F979
:010C7E002253
:100BD000000075670275680F1568AF68EF70F9154A
:060BE00067AF67EF70F241
:010BE60022EC
:100BE700756936756AC7156AAF6AEF70F91569AF27
:040BF70069EF70F240
:010BFB0022D7
:100BFC00756B6C756C91156CAF6CEF70F9156BAF08
:040C0C006BEF70F228
:010C100022C1
:100B57000000755C09755D68755E8B155EAF5EEFAD
:100B670070F9155DAF5DEF70F2155CAF5CEF70EB80
:010B7700225B
:100B78000000755F167560037561E31561AF61EF7D
:100B880070F91560AF60EF70F2155FAF5FEF70EB53
:010B9800223A
:040A91008E558F5699
:100A9500E5561556AE5570021555FFEF4E601975A2
:100AA5005713755888E5581558AE5770021557FFF6
:080AB500EF4E60DC80EF80D8F9
:010ABD002216
:02093F00C1896C
:10002E0085A27253723F8572A27598DA75D7E875FC
:0C003E00D6FF758E14438E01D2BCD2ACEC
:01004A002293
:020B99008F6D5E
:100B9B003009FDC209C2AF856D6EE56E30E004C24F
:0D0BAB009B8002D29BD2AF856D992280E322
:010BB800221A
:100ABE008B628A638964AB62AA63A9641204A0FF85
:100ACE00EF6017AB620564E564AA637002056314F8
:0B0ADE00F91204A0FF120B9980DC222B
:03002300020C5973
:0D0C5900309802C298309904C299D2093235
:04094100026F000041
:100C2600438E805389F0758ACD758CD4C28DD2A936
:030C3600D28C223B
:03000B00020B10D5
:040B1000C0E0C0D0B1
:100B14000570E5707002056FC3E57094E8E56F94A5
:0B0B2400034008756F00757000D20CD4
:050B2F00D0D0D0E0323F
:02094500C18A65
:0D0C660075CF0075CDC075CED043AF022212
:100C49008F73200AFDD20A8573CF200AFDAFCF2208
:03004B00020003AD
:0600030075CDC0C20A32F7
:05094700C18B0134002A
:100C11007594007593C3759DC375BD0075BE007550
:050C2100BC88D2AD22E9
:03002B0002069E2C
:10069E00C0E0C0F0C083C082C0D075D000C000C022
:1006AE0004C005C006C00753BC00E5341204DB06C7
:1006BE00C70006E301000006FFAFBD7E04EF8EF01B
:1006CE00A4FFAEF0ADBE7C00EF2DF52DEE3CF52C6B
:1006DE007534018021AFBD7E04EF8EF0A4FFAEF025
:1006EE00ADBE7C00EF2DF52FEE3CF52E7534068059
:1006FE0005C20B753400E5344488F5BCD007D0062E
:10070E00D005D004D000D0D0D082D083D0F0D0E0AD
:01071E0032A8
:100550004E524620434152204D415354455220446F
:10056000454D4F0D0A0044454D4F20566572736945
:100570006F6E3A20302E310D0A0053797374656D19
:1005800020496E6974204F4B0D0A004E524632349A
:100590004C303120436865636B2E2E2E0D0A004EC1
:1005A000524632344C303120436865636B204572CB
:1005B000726F720D0A004E524632344C3031204375
:1005C0006865636B204F4B0D0A004E524632344C27
:1005D0003031205458204D6F64650D0A004E52464C
:1005E00032344C30312054785061636B6574205341
:1005F000656E64204F4B004E524632344C303120F1
:1006000054785061636B65742053656E6420455265
:02061000520096
:10094C00C10C602000006162636465666768696A57
:10095C006B6C6D6E6F707172737479757778797A60
:06096C0031323334350086
:10084E0075970075940075930075920075910075FB
:10085E00960075950075B20075B10075B40075B34C
:10086E000075CA0075C90075CC0075CB0075E20025
:10087E0075E100D2CCD2A2D2AF12002E7BFF7A0548
:10088E007950120ABE7BFF7A057966120ABE120CE7
:05089E00261209B02242
:1007860012084E7BFF7A05797A120ABE7BFF7A053C
:10079600798B120ABE12071FEF600E120B577BFFF2
:1007A6007A05799F120ABE80EC7BFF7A0579B6122C
:1007B6000ABE1208A37BFF7A0579CA120ABE300C5C
:1007C600FD7B017A0079001208EEEFB4200B7BFF67
:1007D6007A0579DD120ABE80097BFF7A0579F71260
:0707E6000ABEC20C80D822FC
:10061E00020786E493A3F8E493A34003F68001F265
:10062E0008DFF48029E493A3F85407240CC8C333DD
:10063E00C4540F4420C8834004F456800146F6DFAC
:10064E00E4800B0102040810204080900931E47E02
:10065E00019360BCA3FF543F30E509541FFEE493A1
:10066E00A360010ECF54C025E060A840B8E493A368
:10067E00FAE493A3F8E493A3C8C582C8CAC583CA93
:10068E00F0A3C8C582C8CAC583CADFE9DEE780BE4B
:010972000084
:1003AA00E709F608DFFA8046E709F208DFFA803E35
:1003BA0088828C83E709F0A3DFFA8032E309F60822
:1003CA00DFFA8078E309F208DFFA807088828C838A
:1003DA00E309F0A3DFFA806489828A83E0A3F6083E
:1003EA00DFFA805889828A83E0A3F208DFFA804C18
:1003FA0080D280FA80C680D4806980F280338010EF
:10040A0080A680EA809A80A880DA80E280CA803357
:10041A0089828A83ECFAE493A3C8C582C8CCC583CF
:10042A00CCF0A3C8C582C8CCC583CCDFE9DEE7809F
:10043A000D89828A83E493A3F608DFF9ECFAA9F01E
:10044A00EDFB2289828A83ECFAE0A3C8C582C8CC74
:10045A00C583CCF0A3C8C582C8CCC583CCDFEADE8D
:10046A00E880DB89828A83E493A3F208DFF980CCEF
:10047A0088F0EF60010E4E60C388F0ED2402B404E8
:10048A000050B9F582EB2402B4040050AF2323458F
:06049A0082239003FA73B7
:1004A000BB010689828A83E0225002E722BBFE025A
:0904B000E32289828A83E493228D
:1004B900F8BB010DE58229F582E5833AF583E8F079
:1004C900225006E92582C8F622BBFE05E92582C825
:0204D900F2220D
:1004DB00D083D082F8E4937012740193700DA3A3B0
:1004EB0093F8740193F5828883E4737402936860C4
:0604FB00EFA3A3A380DFC4
:10004E00E517240BF8E60517227808300702780B1F
:10005E00E475F0011205400204A02000EB7F2ED2C1
:10006E00008018EF540F2490D43440D4FF30040B8A
:10007E00EF24BFB41A0050032461FFE51860021587
:10008E0018051BE51B7002051A30070D7808E4757C
:10009E00F001120540EF02052E020AE97403D207A1
:1000AE008003E4C207F5178B088A09890AE4F5185C
:1000BE00F51AF51BE51860077F2012008980F5758B
:1000CE0019FFC201C200C202C203C205C206C208A3
:1000DE00120057FF700D3007057F0012009AAF1BFC
:1000EE00AE1A22B4255FC2D5C204120057FF24D027
:1000FE00B40A00501A75F00A781830D50508B6FF04
:10010E000106C6A426F620D5047002D20380D92497
:10011E00CFB41A00EF5004C2E5D20402029AD20103
:10012E0080C6D20080C0D20280BCD2D580BAD205A1
:10013E0080B47F201200892002077401B518004098
:10014E00F112004EFF1200890200C2D208D20680C0
:10015E009512004EFB12004EFA12004EF94A4B70E9
:10016E0006796B7A037BFF20022EE518602A7E004B
:10017E008E8275830012050160060EEE651970F011
:10018E00C2D5EBC0E0EAC0E0E9C0E0EE1202E1D079
:10019E00E0F9D0E0FAD0E0FB1204A0FF60AAEBC0B9
:1001AE00E0EAC0E0E9C0E0120089D0E02401F9D015
:1001BE00E03400FAD0E0FBE5190460DCD519D980F3
:1001CE00877BFF7A0279DDD202809C7910800279DA
:1001DE0008C206C2088008D2D5790A8004790AC2FC
:1001EE00D5E519047002F519E4FAFDFEFF12004E72
:1001FE00FC7B0820011312004EFD7B1030000A120A
:10020E00004EFE12004EFF7B20EC3382D592D5506D
:10021E0013C3E43000069FFFE49EFEE42001039D1D
:10022E00FDE49CFCE4CBF8C201EC700CCFCECDCC3F
:10023E00E824F8F870F38017C3EF33FFEE33FEEDCA
:10024E0033FDEC33FCEB33FB994002FB0FD8E9EBAB
:10025E00300105F8D0E0C448B201C0E00AEC4D4EC2
:10026E004F78207B0070C2EAB5190040BCC0E01286
:10027E0002E3D0F0D0E0200104C4C0E0C4B201C05B
:10028E00F0120072D0F0D5F0EB0200C21204DB01C6
:10029E005F5301D95801304C012C4201DD4F01E56D
:0F02AE004401E54901454301EB5501CF4601CF1E
:1002BD004501CF47038B5001342D01382E015B2BA7
:1002CD00013C2301592003742A00F4480000015316
:1002DD003F3F3F00790AA2D5200314300509B9101C
:1002ED00020404B9080104A2D5200602500104201D
:1002FD0002689202B518005034C0E07F2030031917
:10030D007F30A20272067205500F12033AC202C26A
:10031D0006C205C2087F30800F300503E9C0E01228
:10032D000089300503D0E0F9D0E0B518CC300517C1
:10033D007F30B9100C1200897F583004077F788008
:10034D0003B908031200893002057F2D0200897F51
:10035D00202008F87F2B2006F322920280CF286EF2
:10036D00756C6C2900D20112004E3001F8C2017873
:10037D001830D50108F60200F42D504349581200EB
:10038D004E2403B405004001E49003869312007AD5
:0D039D00743A12007AD2037518040201D9D7
:10050100BB010CE58229F582E5833AF583E02250AF
:1005110006E92582F8E622BBFE06E92582F8E222F9
:0D052100E58229F582E5833AF583E4932213
:10052E00BB010689828A83F0225002F722BBFE01AC
:02053E00F322A6
:10054000FAE6FB0808E6F925F0F618E6CA3AF622BC
:100AE900EFB40A07740D120AF4740A309811A89920
:100AF900B8130CC2983098FDA899C298B811F6306D
:070B090099FDC299F5992244
:00000001FF
