:05002600A5A5A5A5A59C
:0E08B700054734431010010542344310100170
:1009F8005396EF43962C5395C3D292D293D294C276
:100A08009543CA2053C9DFD2CD53B2F753B1F7D2B9
:0B0A1800B2120B32C20AC2CDD29222F1
:1007A70078627C007D007BFF7A0079267E007F05DA
:1007B70012047A7B007A007962755F057F30120830
:1007C700427B007A0079627558057F1012092CE484
:1007D700FF74622FF8E6B4A5040FBF05F4EF6405B4
:0707E70060037F01227F0087
:0107EE0022E8
:02000E008D67FC
:10001000C292120B3F8F68AF67120B3FD292AF684C
:0100200022BD
:0C0B0B00C292120B3F7FFF120B3FD292F0
:010B170022BB
:06092C008B558A56895725
:10093200C292120B3F8F59E4F55AE55AC3955850AB
:10094200197FFF120B3FAB55AA56A957855A8275DC
:0E0952008300EF1204B9055A80E0D292AF592B
:010960002274
:0B0837007B007A007942755F057F2A84
:060842008B5C8A5D895EFB
:10084800C292120B3F8F60E4F561E561C3955F507A
:1008580019AB5C055EE55EAA5D7002055D14F912D0
:0E08680004A0FF120B3F056180E0D292AF604A
:01087600225F
:1008F500C2CD755F207FA0120842D2CD20B2FD7F08
:1009050007120B0B8F6BAD6B7F2712000EE56B305B
:10091500E40A7DFF7FE112000E7F1022E56B30E5D2
:06092500037F20227FFF8A
:01092B0022A9
:060961008B1C8A1D891E9B
:100967007F07120B0B8F1FAD1F7F2712000EE51F8E
:1009770030E618AB1CAA1DA91E7558207F61120905
:0D0987002C7DFF7FE112000E7F00227F011A
:010994002240
:10099500C2CD1208377D017F2112000E7D017F2215
:1009A50012000E7D287F2512000E7D207F3112005A
:1009B5000E7D0F7F2612000E7D0F7F2012000ED2B6
:0209C500CD2241
:10087700C2CD7B007A007947755F057F3012084249
:100887001208377D017F2112000E7D017F221200A1
:100897000E7D1A7F2412000E7D287F2512000E7D03
:1008A7000F7F2612000E7D0E7F2012000ED2CD2262
:1007EF00526F636B65725F4C5F58203D202564200C
:1007FF000A00526F636B65725F4C5F59203D202575
:10080F0064200A00526F636B65725F525F58203D20
:10081F00202564200A00526F636B65725F525F5927
:08082F00203D202564200A0091
:10061E007D04E4FF12075A8E4C8F4D7D047F01122C
:10062E00075A8E4E8F4F7D047F0612075A8E508FBB
:10063E00517D047F0712075A8E528F53750BFF752B
:10064E000C07750DEF854C0E854D0F7B017A0079E9
:10065E00001200AA7B017A007900120A4A750BFF7C
:10066E00750C08750D01854E0E854F0F7B017A00B6
:10067E0079001200AA7B017A007900120A4A750BE2
:10068E00FF750C08750D1385500E85510F7B017A81
:10069E000079001200AA7B017A007900120A4A75CD
:1006AE000BFF750C08750D2585520E85530F7B01BA
:1006BE007A0079001200AA7B017A007900020A4AB8
:030000000206CE27
:0C06CE00787FE4F6D8FD75816B020715FB
:05000300007F19DFFE83
:0100080022D5
:0A0B580000007F027E0FDEFEDFFCCE
:010B62002270
:080B63007F367EC7DEFEDFFCD9
:010B6B002267
:080B6C007F6C7E91DEFEDFFCD0
:010B7400225E
:0E0ADE0000007F097E687D8BDDFEDEFCDFFA06
:010AEC0022E7
:0E0AED0000007F167E037DE3DDFEDEFCDFFAF7
:010AFB0022D8
:0208C500C189E7
:100AB100E5A2543FF5A275985075D7E875D6FF7534
:0A0AC1008E14438E01D2BCD2AC2289
:0D0B18003009FDC209C2AFEFD2AF8F9922A4
:100A4A008B088A09890AAB08AA09A90A1204A060B4
:100A5A0013050AE50A7002050914F91204A0FF1227
:050A6A000B1880E222E0
:03002300020B25A8
:0D0B2500309802C298309904C299D209326A
:0408C70002690000C2
:100ACB00438E805389F0758ACD758CD4C28DD2A993
:030ADB00D28C2298
:03000B00020A6F77
:040A6F00C0E0C0D053
:100A7300056AE56A70020569C3E56A94E8E5699465
:0B0A8300034008756900756A00D20C82
:050A8E00D0D0D0E032E1
:0208CB00C18AE0
:0D0B3200E4F5CF75CDC075CED043AF0222E3
:0D0B3F00200AFDD20A8FCF200AFDAFCF2281
:03004B00020B7530
:060B750075CDC0C20A327A
:0208CD00C18BDD
:0C0B4C00759DC3E4F5BD75BC88D2AD22D8
:03002B00020B7B4A
:060B7B0075BC00C20B3244
:10002E00EF4488F5BCD20B300BFDAFBDEF75F0047D
:0C003E00A4ADBE7C002DFFEC35F0FE22CE
:04075A008F088D096E
:10075E00E4F50DF50CF50BF50AF50EE50EC395094E
:10076E005023AF0812002EE4FCFDE50D2FF50DE52C
:10077E000C3EF50CED350BF50BEC350AF50A120BAC
:10078E0063050980D6AF09AB07E4FAF9F8AF0DAEF1
:08079E000CAD0BAC0A120517AB
:0107A6002230
:0F0AFC0053797374656D20496E6974204F4B00F8
:1008CF00C10C20202248656C6C6F20576F726C64CE
:1008DF0021000000000000000000000000000000E8
:0508EF00000000000004
:1009C700E4F597F594F593F592F591F596F595F588
:1009D700B2F5B1F5B4F5B3F5CAF5C9F5CCF5CBF574
:1009E700E2F5E1D2CC120AB1120ACB120B4CD2AF0C
:0109F70022DD
:100A93001209C7120ADE7BFF7A0A79FC120A4A128C
:0E0AA3000ADE300CFDC20C12061EB2CC80F42E
:1006DA00020A93E493A3F8E493A34003F68001F299
:1006EA0008DFF48029E493A3F85407240CC8C33321
:1006FA00C4540F4420C8834004F456800146F6DFF0
:10070A00E4800B01020408102040809008B7E47EC0
:10071A00019360BCA3FF543F30E509541FFEE493E4
:10072A00A360010ECF54C025E060A840B8E493A3AB
:10073A00FAE493A3F8E493A3C8C582C8CAC583CAD6
:10074A00F0A3C8C582C8CAC583CADFE9DEE780BE8E
:0108F4000003
:1003AA00E709F608DFFA8046E709F208DFFA803E35
:1003BA0088828C83E709F0A3DFFA8032E309F60822
:1003CA00DFFA8078E309F208DFFA807088828C838A
:1003DA00E309F0A3DFFA806489828A83E0A3F6083E
:1003EA00DFFA805889828A83E0A3F208DFFA804C18
:1003FA0080D280FA80C680D4806980F280338010EF
:10040A0080A680EA809A80A880DA80E280CA803357
:10041A0089828A83ECFAE493A3C8C582C8CCC583CF
:10042A00CCF0A3C8C582C8CCC583CCDFE9DEE7809F
:10043A000D89828A83E493A3F608DFF9ECFAA9F01E
:10044A00EDFB2289828A83ECFAE0A3C8C582C8CC74
:10045A00C583CCF0A3C8C582C8CCC583CCDFEADE8D
:10046A00E880DB89828A83E493A3F208DFF980CCEF
:10047A0088F0EF60010E4E60C388F0ED2402B404E8
:10048A000050B9F582EB2402B4040050AF2323458F
:06049A0082239003FA73B7
:1004A000BB010689828A83E0225002E722BBFE025A
:0904B000E32289828A83E493228D
:1004B900F8BB010DE58229F582E5833AF583E8F079
:1004C900225006E92582C8F622BBFE05E92582C825
:0204D900F2220D
:1004DB0075F008758200EF2FFFEE33FECD33CDCCD8
:1004EB0033CCC58233C5829BED9AEC99E58298405B
:1004FB000CF582EE9BFEED9AFDEC99FC0FD5F0D638
:10050B00E4CEFBE4CDFAE4CCF9A88222B800C1B961
:10051B000059BA002DEC8BF084CFCECDFCE5F0CB9F
:10052B00F97818EF2FFFEE33FEED33FDEC33FCEBD8
:10053B0033FB10D703994004EB99FB0FD8E5E4F993
:10054B00FA227818EF2FFFEE33FEED33FDEC33FC80
:10055B00C933C910D7059BE99A4007EC9BFCE99A74
:10056B00F90FD8E0E4C9FAE4CCFB2275F010EF2FB9
:10057B00FFEE33FEED33FDCC33CCC833C810D707B9
:10058B009BEC9AE899400AED9BFDEC9AFCE899F8F4
:0E059B000FD5F0DAE4CDFBE4CCFAE4C8F92287
:10004E00E517240BF8E60517227808300702780B1F
:10005E00E475F0011205E80204A02000EB7F2ED219
:10006E00008018EF540F2490D43440D4FF30040B8A
:10007E00EF24BFB41A0050032461FFE51860021587
:10008E0018051BE51B7002051A30070D7808E4757C
:10009E00F0011205E8EF0205D6020A237403D20717
:1000AE008003E4C207F5178B088A09890AE4F5185C
:1000BE00F51AF51BE51860077F2012008980F5758B
:1000CE0019FFC201C200C202C203C205C206C208A3
:1000DE00120057FF700D3007057F0012009AAF1BFC
:1000EE00AE1A22B4255FC2D5C204120057FF24D027
:1000FE00B40A00501A75F00A781830D50508B6FF04
:10010E000106C6A426F620D5047002D20380D92497
:10011E00CFB41A00EF5004C2E5D20402029AD20103
:10012E0080C6D20080C0D20280BCD2D580BAD205A1
:10013E0080B47F201200892002077401B518004098
:10014E00F112004EFF1200890200C2D208D20680C0
:10015E009512004EFB12004EFA12004EF94A4B70E9
:10016E0006796B7A037BFF20022EE518602A7E004B
:10017E008E827583001205A960060EEE651970F069
:10018E00C2D5EBC0E0EAC0E0E9C0E0EE1202E1D079
:10019E00E0F9D0E0FAD0E0FB1204A0FF60AAEBC0B9
:1001AE00E0EAC0E0E9C0E0120089D0E02401F9D015
:1001BE00E03400FAD0E0FBE5190460DCD519D980F3
:1001CE00877BFF7A0279DDD202809C7910800279DA
:1001DE0008C206C2088008D2D5790A8004790AC2FC
:1001EE00D5E519047002F519E4FAFDFEFF12004E72
:1001FE00FC7B0820011312004EFD7B1030000A120A
:10020E00004EFE12004EFF7B20EC3382D592D5506D
:10021E0013C3E43000069FFFE49EFEE42001039D1D
:10022E00FDE49CFCE4CBF8C201EC700CCFCECDCC3F
:10023E00E824F8F870F38017C3EF33FFEE33FEEDCA
:10024E0033FDEC33FCEB33FB994002FB0FD8E9EBAB
:10025E00300105F8D0E0C448B201C0E00AEC4D4EC2
:10026E004F78207B0070C2EAB5190040BCC0E01286
:10027E0002E3D0F0D0E0200104C4C0E0C4B201C05B
:10028E00F0120072D0F0D5F0EB0200C21205F801A8
:10029E005F5301D95801304C012C4201DD4F01E56D
:0F02AE004401E54901454301EB5501CF4601CF1E
:1002BD004501CF47038B5001342D01382E015B2BA7
:1002CD00013C2301592003742A00F4480000015316
:1002DD003F3F3F00790AA2D5200314300509B9101C
:1002ED00020404B9080104A2D5200602500104201D
:1002FD0002689202B518005034C0E07F2030031917
:10030D007F30A20272067205500F12033AC202C26A
:10031D0006C205C2087F30800F300503E9C0E01228
:10032D000089300503D0E0F9D0E0B518CC300517C1
:10033D007F30B9100C1200897F583004077F788008
:10034D0003B908031200893002057F2D0200897F51
:10035D00202008F87F2B2006F322920280CF286EF2
:10036D00756C6C2900D20112004E3001F8C2017873
:10037D001830D50108F60200F42D504349581200EB
:10038D004E2403B405004001E49003869312007AD5
:0D039D00743A12007AD2037518040201D9D7
:1005A900BB010CE58229F582E5833AF583E0225007
:1005B90006E92582F8E622BBFE06E92582F8E22251
:0D05C900E58229F582E5833AF583E493226B
:1005D600BB010689828A83F0225002F722BBFE0104
:0205E600F322FE
:1005E800FAE6FB0808E6F925F0F618E6CA3AF62214
:1005F800D083D082F8E4937012740193700DA3A392
:1006080093F8740193F5828883E4737402936860A5
:06061800EFA3A3A380DFA5
:100A2300EFB40A07740D120A2E740A309811A899AC
:100A3300B8130CC2983098FDA899C298B811F63033
:070A430099FDC299F599220B
:00000001FF
