:05002600A5A5A5A5A59C
:0E0A87000527344310100105223443101001DE
:1009EC005396EF43962C5395C3D292D293D294C282
:1009FC009543CA2053C9DFD2CD53B2F753B1F7D2C6
:0B0A0C00B2120B4FC20AC2CDD29222E0
:1007C80078087C007D007BFF7A0079267E007F0513
:1007D80012047A7B007A0079087511057F301208B7
:1007E800A57B007A0079087511057F10120951E47C
:1007F800FF74082FF8E6B4A5040FBF05F4EF6405ED
:0708080060037F01227F0065
:01080F0022C6
:02000E008D0C57
:10001000C292120B5C8F0DAF0C120B5CD292AF0D23
:0100200022BD
:0C0B3500C292120B5C7FFF120B5CD2928C
:010B41002291
:060951008B0E8A0F8910D5
:10095700C292120B5C8F12E4F513E513C395115085
:10096700197FFF120B5CAB0EAA0FA91085138275B6
:0E0977008300EF1204B9051380E0D292AF1294
:01098500224F
:0B089A007B007A0079227511057F2A8F
:0608A5008B0E8A0F891082
:1008AB00C292120B5C8F12E4F513E513C395115032
:1008BB0019AB0E0510E510AA0F7002050F14F912F3
:0E08CB0004A0FF120B5C051380E0D292AF1266
:0108D90022FC
:10091A00C2CD7511207FA01208A5D2CD20B2FD7FCD
:10092A0007120B358F1EAD1E7F2712000EE51E30F3
:10093A00E40A7DFF7FE112000E7F1022E51E30E5FA
:06094A00037F20227FFF65
:010950002284
:060986008B088A09890AB2
:10098C007F07120B358F0BAD0B7F2712000EE50B7B
:10099C0030E618AB08AA09A90A7511207F61120963
:0D09AC00517DFF7FE112000E7F00227F01D0
:0109B900221B
:1009BA00C2CD12089A7D017F2112000E7D017F228D
:1009CA0012000E7D287F2512000E7D207F31120035
:1009DA000E7D0F7F2612000E7D0F7F2012000ED291
:0209EA00CD221C
:1008DA00C2CD7B007A0079277511057F301208A5F1
:1008EA0012089A7D017F2112000E7D017F221200DB
:1008FA000E7D1A7F2412000E7D287F2512000E7DA0
:10090A000F7F2612000E7D0E7F2012000ED2CD22FE
:10081000526F636B65725F4C5F58203D20257520D9
:100820000A00526F636B65725F4C5F59203D202553
:1008300075200A00526F636B65725F525F58203DEE
:10084000202575200A00526F636B65725F525F59F5
:08085000203D202575200A005F
:10067E00750BFF750C08750D1085350E85360F7BC5
:10068E00017A0079201200AA7B017A007920120AE1
:10069E003E750BFF750C08750D2285370E85380FCC
:1006AE007B017A0079201200AA7B017A0079201250
:1006BE000A3E750BFF750C08750D3485390E853A9B
:1006CE000F7B017A0079201200AA7B017A00792033
:1006DE00120A3E750BFF750C08750D46853B0E858F
:1006EE003C0F7B017A0079201200AA7B017A0079F7
:0406FE0020020A3E8E
:10002E00852C35852D36852E37852F3885303985AB
:0B003E00313A85323B85333C02067EE0
:030000000205F204
:0C05F200787FE4F6D8FD75813C020639E4
:05000300007F19DFFE83
:0100080022D5
:0A0B690000007F027E0FDEFEDFFCBD
:010B7300225F
:080B74007F367EC7DEFEDFFCC8
:010B7C002256
:080B7D007F6C7E91DEFEDFFCBF
:010B8500224D
:0E0B170000007F097E687D8BDDFEDEFCDFFACC
:010B250022AD
:0E0B260000007F167E037DE3DDFEDEFCDFFABD
:010B3400229E
:100AA500EF1FAA0670011E4A60107C137D88ED1D9C
:0A0AB500AA0470011C4A60E880F4F6
:010ABF002214
:020A9500C18915
:100AC000AFA253073F8FA27598DA75D7E875D6FFA6
:0A0AD000758E14438E01D2BCD2AC27
:010ADA0022F9
:100ADB003009FDC209C2AFEF30E004C29B8002D2E5
:050AEB009BD2AF8F99C2
:010AF00022E3
:100A3E008B088A09890AAB08AA09A90A1204A060C0
:100A4E0013050AE50A7002050914F91204A0FF1233
:050A5E000ADB80E2222A
:03002300020B428B
:0D0B4200309802C298309904C299D209324D
:040A9700021C00003D
:100AF100438E805389F0758ACD758CD4C28DD2A96D
:030B0100D28C2271
:03000B00020A6383
:040A6300C0E0C0D05F
:100A6700051DE51D7002051CC3E51D94E8E51C94F2
:0B0A7700034008751C00751D00D20C28
:050A8200D0D0D0E032ED
:020A9B00C18A0E
:0D0B4F00E4F5CF75CDC075CED043AF0222C6
:0D0B5C00200AFDD20A8FCF200AFDAFCF2264
:03004B00020B861F
:060B860075CDC0C20A3269
:050A9D00C18B013400D3
:100B0400E4F5947593C3759DC3F5BDF5BE75BC88B6
:030B1400D2AD223D
:03002B000205507B
:10055000C0E0C0F0C0D075D000C004C005C006C067
:100560000775BC00E53414602424FB603914604F27
:1005700024077064AFBDEF75F004A4AEF0ADBE7C8F
:10058000002DF52DEC3EF52C7534018050AFBDEFFC
:1005900075F004A4AEF0ADBE7C002DF52FEC3EF559
:1005A0002E7534068037AFBDEF75F004A4AEF0AD04
:1005B000BE7C002DF531EC3EF530753407801EAF62
:1005C000BDEF75F004A4AEF0ADBE7C002DF533ECAC
:1005D0003EF5327534088005C20B753400E53444AD
:1005E00088F5BCD007D006D005D004D0D0D0F0D04C
:0205F000E032F7
:100702004E52465F4341525F534C4156450A0044A4
:10071200454D4F2056657273696F6E3A20302E3107
:100722000A0053797374656D20496E6974204F4BCA
:100732000A00090A4E524632344C30312043686571
:10074200636B0A00090A4E524632344C303120455E
:1007520072726F720A00090A4E524632344C3031BC
:05076200204F4B0A00CE
:020AA200C10C85
:10085800E4F597F594F593F592F591F596F595F5F8
:10086800B2F5B1F5B4F5B3F5CAF5C9F5CCF5CBF5E4
:10087800E2F5E1D2CCD2AF120AC07BFF7A07790247
:10088800120A3E7BFF7A077911120A3E120AF10218
:0208980009EC69
:10076700120858120B177BFF7A077924120A3E7B6F
:10077700FF7A077934800F1207C8EF600E120B1744
:100787007BFF7A077946120A3E80EC7BFF7A07796E
:1007970058120A3E1209BA300CFDC20C12002E7B09
:1007A700017A007900120986EF701290001E740A10
:1007B700F0E4A3F07B017A007900120A3EB2CC8004
:0107C700D65B
:1005FE00020767E493A3F8E493A34003F68001F2A5
:10060E0008DFF48029E493A3F85407240CC8C333FD
:10061E00C4540F4420C8834004F456800146F6DFCC
:10062E00E4800B0102040810204080900A87E47ECB
:10063E00019360BCA3FF543F30E509541FFEE493C1
:10064E00A360010ECF54C025E060A840B8E493A388
:10065E00FAE493A3F8E493A3C8C582C8CAC583CAB3
:10066E00F0A3C8C582C8CAC583CADFE9DEE780BE6B
:010AA4000051
:1003AA00E709F608DFFA8046E709F208DFFA803E35
:1003BA0088828C83E709F0A3DFFA8032E309F60822
:1003CA00DFFA8078E309F208DFFA807088828C838A
:1003DA00E309F0A3DFFA806489828A83E0A3F6083E
:1003EA00DFFA805889828A83E0A3F208DFFA804C18
:1003FA0080D280FA80C680D4806980F280338010EF
:10040A0080A680EA809A80A880DA80E280CA803357
:10041A0089828A83ECFAE493A3C8C582C8CCC583CF
:10042A00CCF0A3C8C582C8CCC583CCDFE9DEE7809F
:10043A000D89828A83E493A3F608DFF9ECFAA9F01E
:10044A00EDFB2289828A83ECFAE0A3C8C582C8CC74
:10045A00C583CCF0A3C8C582C8CCC583CCDFEADE8D
:10046A00E880DB89828A83E493A3F208DFF980CCEF
:10047A0088F0EF60010E4E60C388F0ED2402B404E8
:10048A000050B9F582EB2402B4040050AF2323458F
:06049A0082239003FA73B7
:1004A000BB010689828A83E0225002E722BBFE025A
:0904B000E32289828A83E493228D
:1004B900F8BB010DE58229F582E5833AF583E8F079
:1004C900225006E92582C8F622BBFE05E92582C825
:0204D900F2220D
:10004E00E517240BF8E60517227808300702780B1F
:10005E00E475F00112051A0204A02000EB7F2ED2E7
:10006E00008018EF540F2490D43440D4FF30040B8A
:10007E00EF24BFB41A0050032461FFE51860021587
:10008E0018051BE51B7002051A30070D7808E4757C
:10009E00F00112051AEF020508020A177403D207BF
:1000AE008003E4C207F5178B088A09890AE4F5185C
:1000BE00F51AF51BE51860077F2012008980F5758B
:1000CE0019FFC201C200C202C203C205C206C208A3
:1000DE00120057FF700D3007057F0012009AAF1BFC
:1000EE00AE1A22B4255FC2D5C204120057FF24D027
:1000FE00B40A00501A75F00A781830D50508B6FF04
:10010E000106C6A426F620D5047002D20380D92497
:10011E00CFB41A00EF5004C2E5D20402029AD20103
:10012E0080C6D20080C0D20280BCD2D580BAD205A1
:10013E0080B47F201200892002077401B518004098
:10014E00F112004EFF1200890200C2D208D20680C0
:10015E009512004EFB12004EFA12004EF94A4B70E9
:10016E0006796B7A037BFF20022EE518602A7E004B
:10017E008E827583001204DB60060EEE651970F038
:10018E00C2D5EBC0E0EAC0E0E9C0E0EE1202E1D079
:10019E00E0F9D0E0FAD0E0FB1204A0FF60AAEBC0B9
:1001AE00E0EAC0E0E9C0E0120089D0E02401F9D015
:1001BE00E03400FAD0E0FBE5190460DCD519D980F3
:1001CE00877BFF7A0279DDD202809C7910800279DA
:1001DE0008C206C2088008D2D5790A8004790AC2FC
:1001EE00D5E519047002F519E4FAFDFEFF12004E72
:1001FE00FC7B0820011312004EFD7B1030000A120A
:10020E00004EFE12004EFF7B20EC3382D592D5506D
:10021E0013C3E43000069FFFE49EFEE42001039D1D
:10022E00FDE49CFCE4CBF8C201EC700CCFCECDCC3F
:10023E00E824F8F870F38017C3EF33FFEE33FEEDCA
:10024E0033FDEC33FCEB33FB994002FB0FD8E9EBAB
:10025E00300105F8D0E0C448B201C0E00AEC4D4EC2
:10026E004F78207B0070C2EAB5190040BCC0E01286
:10027E0002E3D0F0D0E0200104C4C0E0C4B201C05B
:10028E00F0120072D0F0D5F0EB0200C212052A0176
:10029E005F5301D95801304C012C4201DD4F01E56D
:0F02AE004401E54901454301EB5501CF4601CF1E
:1002BD004501CF47038B5001342D01382E015B2BA7
:1002CD00013C2301592003742A00F4480000015316
:1002DD003F3F3F00790AA2D5200314300509B9101C
:1002ED00020404B9080104A2D5200602500104201D
:1002FD0002689202B518005034C0E07F2030031917
:10030D007F30A20272067205500F12033AC202C26A
:10031D0006C205C2087F30800F300503E9C0E01228
:10032D000089300503D0E0F9D0E0B518CC300517C1
:10033D007F30B9100C1200897F583004077F788008
:10034D0003B908031200893002057F2D0200897F51
:10035D00202008F87F2B2006F322920280CF286EF2
:10036D00756C6C2900D20112004E3001F8C2017873
:10037D001830D50108F60200F42D504349581200EB
:10038D004E2403B405004001E49003869312007AD5
:0D039D00743A12007AD2037518040201D9D7
:1004DB00BB010CE58229F582E5833AF583E02250D6
:1004EB0006E92582F8E622BBFE06E92582F8E22220
:0D04FB00E58229F582E5833AF583E493223A
:10050800BB010689828A83F0225002F722BBFE01D2
:02051800F322CC
:10051A00FAE6FB0808E6F925F0F618E6CA3AF622E2
:10052A00D083D082F8E4937012740193700DA3A360
:10053A0093F8740193F5828883E473740293686074
:06054A00EFA3A3A380DF74
:100A1700EFB40A07740D120A22740A309811A899C4
:100A2700B8130CC2983098FDA899C298B811F6303F
:070A370099FDC299F5992217
:00000001FF
