:100A1A004E524632344C30312054785061636B6503
:100A2A00742053656E64204F4B0D0A004E524632B5
:100A3A00344C30312054785061636B6574205365AF
:090A4A006E64204552520D0A00B1
:100AED00300A28120BB812087AAB37AA38A9391276
:100AFD000926EFB4200CB2CC7BFF7A0A791A120BBF
:0C0B0D0019227BFF7A0A7936120B19229C
:05002600A5A5A5A5A59C
:100B44000527344310100105223443101001012DF0
:040B540008012C0860
:1009A6005396EF43962C5395C3439500D292D29318
:1009B600D294C29553CAFF43CA2053C9DF43C90024
:1009C600D2CD53B2F743B20053B1F743B100D2B21E
:0A09D600120CF8C20BC2CDD292221F
:100813007BFF7A007926C003C002C0017B007A0007
:10082300794DA801AC02AD03D001D002D0037E0004
:100833007F0512047A7B007A00794D754A057F3073
:10084300120A537B007A00794D7543057F10120914
:10085300E0755200E552C394055010AF52744D2F0A
:10086300F8E6FFEFB4A504055280E9E5526405609C
:06087300037F01227F005B
:01087900225C
:040C5B008F5B8D5CC2
:100C5F00C292AF5B120CDB8F5DAF5C120CDBD292DA
:020C6F00AF5D77
:010C71002260
:02000E008F67FA
:10001000C292AF67120CDB7FFF120CDB8F68D292AB
:02002000AF68C7
:0100220022BB
:0809E0008F3F8B408A418942E0
:1009E800C292AF3F120CDB8F44754500E545C395B5
:1009F80043501A7FFF120CDBAB40AA41A942AE4517
:100A08008E82758300EF1204B9054580DFD292AF5C
:010A18004499
:010A190022BA
:080A53008F468B478A48894950
:100A5B00C292AF46120CDB8F4B754C00E54CC39525
:100A6B004A5019AB470549E549AA48700205481495
:100A7B00F91204A0FF120CDB054C80E0D292AF4BB5
:010A8B002248
:060926008B1C8A1D891ED6
:10092C00C2CDAB1CAA1DA91E852D4A7FA0120A534D
:10093C00D2CD30B2FD7F0712000E8F1FAD1F7F2767
:10094C00120C5BE51F30E40A7DFF7FE1120C5B7F2C
:0C095C001022E51F30E5037F20227FFF02
:01096800226C
:060A8C008B538A548955CA
:100A92007F0712000E8F56AD567F27120C5BE5566C
:100AA20030E618AB53AA54A955852C437F6112092D
:0D0AB200E07DFF7FE1120C5B7F00227F01E1
:010ABF002214
:10096900C2CD7B007A007922754A057F2A120A5383
:100979007D017F21120C5B7D017F22120C5B7D289A
:100989007F25120C5BAD2C7F31120C5B7D0F7F260E
:0D099900120C5B7D0F7F20120C5BD2CD2273
:1008DB00C2CD7B007A007927754A057F30120A5307
:1008EB007B007A007922754A057F2A120A537D0113
:1008FB007F21120C5B7D017F22120C5B7D1A7F2402
:10090B00120C5B7D287F25120C5B7D0F7F26120C52
:0B091B005B7D0E7F20120C5BD2CD2212
:100C3D00526F636B655F58203D2025750900526F1B
:0E0C4D00636B65725F59203D2025750D0A000E
:050B5800033700003A24
:10087A007B017A007900C003C002C0017BFF7A0CB9
:10088A00793D8B0B8A0C890D853A0E853B0FD00179
:10089A00D002D0031200AA7B017A007900120B1948
:1008AA007B017A007900C003C002C0017BFF7A0C89
:1008BA00794B8B0B8A0C890D853C0E853D0FD00137
:1008CA00D002D0031200AA7B017A007900120B1918
:0108DA0022FB
:100BB800AB2EAA2FA9301204DBF53B85F03AAB2EF9
:100BC800AA2FA930758202758300120506F53D85A6
:030BD800F03C22CC
:03000000020706EE
:0C070600787FE4F6D8FD75817502074D80
:0B0D0500007573191573AF73EF70F9E0
:010D100022C0
:100C72000000756902756A0F156AAF6AEF70F9159F
:060C820069AF69EF70F29A
:010C88002249
:100C8900756B36756CC7156CAF6CEF70F9156BAF7A
:040C99006BEF70F29B
:010C9D002234
:100C9E00756D6C756E91156EAF6EEF70F9156DAF5B
:040CAE006DEF70F284
:010CB200221F
:100BDB000000755E09755F6875608B1560AF60EF1F
:100BEB0070F9155FAF5FEF70F2155EAF5EEF70EBF4
:010BFB0022D7
:100BFC0000007561167562037563E31563AF63EFEF
:100C0C0070F91562AF62EF70F21561AF61EF70EBC6
:010C1C0022B5
:040AC0008E578F5866
:100AC400E5581558AE5770021557FFEF4E6019756B
:100AD4005913755A88E55A155AAE5970021559FFBB
:080AE400EF4E60DC80EF80D8CA
:010AEC0022E7
:020B5D00C1894C
:10002E0085A27453743F8574A27598DA75D7E875F6
:0C003E00D6FF758E14438E01D2BCD2ACEC
:01004A002293
:020C1D008F6FD7
:100C1F003009FDC209C2AF856F70E57030E004C2C4
:0D0C2F009B8002D29BD2AF856F992280E39B
:010C3C002295
:100B19008B648A658966AB64AA65A9661204A0FF1D
:100B2900EF6017AB640566E566AA65700205651492
:0B0B3900F91204A0FF120C1D80DC224A
:03002300020CEBE1
:0D0CEB00309802C298309904C299D20932A3
:060B5F00C10A0271000052
:100CC800438E805389F0758ACD758CD4C28DD2A994
:030CD800D28C2299
:03000B00020B9451
:040B9400C0E0C0D02D
:100B98000572E57270020571C3E57294E8E5719417
:0B0BA800034008757100757200D20A4E
:050BB300D0D0D0E032BB
:020B6500C18B42
:0D0CF80075CF0075CDC075CED043AF022280
:100CDB008F75200BFDD20B8575CF200BFDAFCF226F
:03004B00020003AD
:0600030075CDC0C20B32F6
:050B6700C18C01360005
:100CB3007594007593C3759DC375BD0075BE0075AE
:050CC300BC88D2AD2247
:03002B0002079237
:10079200C0E0C0F0C083C082C0D075D000C000C02D
:1007A20004C005C006C00753BC00E53612053E076B
:1007B200BB0007D701000007F3AFBD7E04EF8EF048
:1007C200A4FFAEF0ADBE7C00EF2DF52FEE3CF52E72
:1007D2007536018021AFBD7E04EF8EF0A4FFAEF02E
:1007E200ADBE7C00EF2DF531EE3CF530753606805E
:1007F20005C20C753600E5364488F5BCD007D00634
:10080200D005D004D000D0D0D082D083D0F0D0E0B8
:0108120032B3
:1005B3004E524620434152204D415354455220440C
:1005C300454D4F0D0A0044454D4F205665727369E2
:1005D3006F6E3A20302E310D0A0054696D6572300A
:1005E30020496E69740D0A004E524632344C303144
:1005F30020496E69740D0A004E524632344C303134
:1006030020436865636B2E2E2E0D0A004E52463230
:10061300344C303120436865636B204572726F72CE
:100623000D0A004E524632344C3031204368656324
:100633006B204F4B0D0A004E524632344C30312062
:100643005458204D6F64650D0A0053797374656DBA
:0B06530020496E6974204F4B0D0A0017
:10065E0075970075940075930075920075910075ED
:10066E00960075950075B20075B10075B40075B33E
:10067E000075CA0075C90075CC0075CB0075E20017
:10068E0075E100D2CCD2A2D2AF12002E7BFF7A053A
:10069E0079B3120B197BFF7A0579C9120B19120C5B
:1006AE00C87BFF7A0579DD120B191209A67BFF7A3A
:1006BE000579EB120B197BFF7A0579FB120B1912D8
:1006CE000813EF600E120BDB7BFF7A06790F120B0D
:1006DE001980EC7BFF7A067926120B19120BDB12AE
:1006EE0008DB7BFF7A06793A120B19120CB37BFFEB
:0806FE007A06794D120B192256
:090D110012065E120AED80FB22BD
:10071200020D11E493A3F8E493A34003F68001F2DF
:1007220008DFF48029E493A3F85407240CC8C333E8
:10073200C4540F4420C8834004F456800146F6DFB7
:10074200E4800B0102040810204080900B44E47EF8
:10075200019360BCA3FF543F30E509541FFEE493AC
:10076200A360010ECF54C025E060A840B8E493A373
:10077200FAE493A3F8E493A3C8C582C8CAC583CA9E
:10078200F0A3C8C582C8CAC583CADFE9DEE780BE56
:010B6C000088
:1003AA00E709F608DFFA8046E709F208DFFA803E35
:1003BA0088828C83E709F0A3DFFA8032E309F60822
:1003CA00DFFA8078E309F208DFFA807088828C838A
:1003DA00E309F0A3DFFA806489828A83E0A3F6083E
:1003EA00DFFA805889828A83E0A3F208DFFA804C18
:1003FA0080D280FA80C680D4806980F280338010EF
:10040A0080A680EA809A80A880DA80E280CA803357
:10041A0089828A83ECFAE493A3C8C582C8CCC583CF
:10042A00CCF0A3C8C582C8CCC583CCDFE9DEE7809F
:10043A000D89828A83E493A3F608DFF9ECFAA9F01E
:10044A00EDFB2289828A83ECFAE0A3C8C582C8CC74
:10045A00C583CCF0A3C8C582C8CCC583CCDFEADE8D
:10046A00E880DB89828A83E493A3F208DFF980CCEF
:10047A0088F0EF60010E4E60C388F0ED2402B404E8
:10048A000050B9F582EB2402B4040050AF2323458F
:06049A0082239003FA73B7
:1004A000BB010689828A83E0225002E722BBFE025A
:0904B000E32289828A83E493228D
:1004B900F8BB010DE58229F582E5833AF583E8F079
:1004C900225006E92582C8F622BBFE05E92582C825
:0204D900F2220D
:1004DB00BB010A89828A83E0F5F0A3E022500687EC
:1004EB00F009E71922BBFE07E3F5F009E3192289AE
:0B04FB00828A83E493F5F074019322E1
:10050600BB0110E58229F582E5833AF583E0F5F033
:10051600A3E0225009E92582F886F008E622BBFE10
:100526000AE92582F8E2F5F008E222E5832AF58356
:08053600E993F5F0A3E993221B
:10053E00D083D082F8E4937012740193700DA3A34C
:10054E0093F8740193F5828883E473740293686060
:06055E00EFA3A3A380DF60
:10004E00E517240BF8E60517227808300702780B1F
:10005E00E475F0011205A30204A02000EB7F2ED25E
:10006E00008018EF540F2490D43440D4FF30040B8A
:10007E00EF24BFB41A0050032461FFE51860021587
:10008E0018051BE51B7002051A30070D7808E4757C
:10009E00F0011205A3EF020591020B6D7403D20756
:1000AE008003E4C207F5178B088A09890AE4F5185C
:1000BE00F51AF51BE51860077F2012008980F5758B
:1000CE0019FFC201C200C202C203C205C206C208A3
:1000DE00120057FF700D3007057F0012009AAF1BFC
:1000EE00AE1A22B4255FC2D5C204120057FF24D027
:1000FE00B40A00501A75F00A781830D50508B6FF04
:10010E000106C6A426F620D5047002D20380D92497
:10011E00CFB41A00EF5004C2E5D20402029AD20103
:10012E0080C6D20080C0D20280BCD2D580BAD205A1
:10013E0080B47F201200892002077401B518004098
:10014E00F112004EFF1200890200C2D208D20680C0
:10015E009512004EFB12004EFA12004EF94A4B70E9
:10016E0006796B7A037BFF20022EE518602A7E004B
:10017E008E8275830012056460060EEE651970F0AE
:10018E00C2D5EBC0E0EAC0E0E9C0E0EE1202E1D079
:10019E00E0F9D0E0FAD0E0FB1204A0FF60AAEBC0B9
:1001AE00E0EAC0E0E9C0E0120089D0E02401F9D015
:1001BE00E03400FAD0E0FBE5190460DCD519D980F3
:1001CE00877BFF7A0279DDD202809C7910800279DA
:1001DE0008C206C2088008D2D5790A8004790AC2FC
:1001EE00D5E519047002F519E4FAFDFEFF12004E72
:1001FE00FC7B0820011312004EFD7B1030000A120A
:10020E00004EFE12004EFF7B20EC3382D592D5506D
:10021E0013C3E43000069FFFE49EFEE42001039D1D
:10022E00FDE49CFCE4CBF8C201EC700CCFCECDCC3F
:10023E00E824F8F870F38017C3EF33FFEE33FEEDCA
:10024E0033FDEC33FCEB33FB994002FB0FD8E9EBAB
:10025E00300105F8D0E0C448B201C0E00AEC4D4EC2
:10026E004F78207B0070C2EAB5190040BCC0E01286
:10027E0002E3D0F0D0E0200104C4C0E0C4B201C05B
:10028E00F0120072D0F0D5F0EB0200C212053E0162
:10029E005F5301D95801304C012C4201DD4F01E56D
:0F02AE004401E54901454301EB5501CF4601CF1E
:1002BD004501CF47038B5001342D01382E015B2BA7
:1002CD00013C2301592003742A00F4480000015316
:1002DD003F3F3F00790AA2D5200314300509B9101C
:1002ED00020404B9080104A2D5200602500104201D
:1002FD0002689202B518005034C0E07F2030031917
:10030D007F30A20272067205500F12033AC202C26A
:10031D0006C205C2087F30800F300503E9C0E01228
:10032D000089300503D0E0F9D0E0B518CC300517C1
:10033D007F30B9100C1200897F583004077F788008
:10034D0003B908031200893002057F2D0200897F51
:10035D00202008F87F2B2006F322920280CF286EF2
:10036D00756C6C2900D20112004E3001F8C2017873
:10037D001830D50108F60200F42D504349581200EB
:10038D004E2403B405004001E49003869312007AD5
:0D039D00743A12007AD2037518040201D9D7
:10056400BB010CE58229F582E5833AF583E022504C
:1005740006E92582F8E622BBFE06E92582F8E22296
:0D058400E58229F582E5833AF583E49322B0
:10059100BB010689828A83F0225002F722BBFE0149
:0205A100F32243
:1005A300FAE6FB0808E6F925F0F618E6CA3AF62259
:100B6D00EFB40A07740D120B78740A309811A89916
:100B7D00B8130CC2983098FDA899C298B811F630E8
:070B8D0099FDC299F59922C0
:00000001FF
