:10091A00476574204E524632344C3031205278208A
:10092A005061636B65743A0D0A00526F636B6572AE
:10093A005F58203D2025750900526F636B65725F11
:09094A0059203D2025750D0A001D
:050A5000032200003943
:10077A00300A02C20AAB22AA23A9241209BFEF70C7
:10078A00EFB2CC7BFF7A09791A120AA0750BFF75B2
:10079A000C09750D34AB22AA23A9241204DBF50F28
:1007AA0085F00E7B007A0079251200AA7B007A0078
:1007BA007925120AA0750BFF750C09750D43AB223A
:1007CA00AA23A924900002120506F50F85F00E7BD4
:1007DA00007A0079251200AA7B007A007925120A8C
:0307EA00A0808D5F
:05002600A5A5A5A5A59C
:100A550005433443101001053E344310100101498C
:040A65000801480834
:100A25005396EF43962C5395C3D292D293D294C248
:100A35009543CA2053C9DFD2CD53B2F753B1F7D28C
:0B0A4500B2120B78C20BC2CDD292227D
:1008520078087C007D007BFF7A0079267E007F0588
:1008620012047A7B007A0079087511057F3012082C
:10087200A57B007A0079087511057F1012098AE4B8
:10088200FF74082FF8E6B4A5040FBF05F4EF640562
:0708920060037F01227F00DB
:01089900223C
:02000E008D0C57
:10001000C292120B858F0DAF0C120B85D292AF0DD1
:0100200022BD
:0C0B5E00C292120B857FFF120B85D29211
:010B6A002268
:06098A008B0E8A0F89109C
:10099000C292120B858F12E4F513E513C395115023
:1009A000197FFF120B85AB0EAA0FA9108513827554
:0E09B0008300EF1204B9051380E0D292AF125B
:0109BE002216
:0B089A007B007A00793E7511057F2A73
:0608A5008B0E8A0F891082
:1008AB00C292120B858F12E4F513E513C395115009
:1008BB0019AB0E0510E510AA0F7002050F14F912F3
:0E08CB0004A0FF120B85051380E0D292AF123D
:0108D90022FC
:10095300C2CD8549117FA01208A5D2CD30B2FD7F4B
:1009630007120B5E8F1EAD1E7F2712000EE51E3091
:10097300E40A7DFF7FE112000E7F1022E51E30E5C1
:06098300037F20227FFF2C
:01098900224B
:0609BF008B088A09890A79
:1009C5007F07120B5E8F0BAD0B7F2712000EE50B19
:1009D50030E618AB08AA09A90A8548117F611209F2
:0D09E5008A7DFF7FE112000E7F00227F015E
:0109F20022E2
:1009F300C2CD12089A7D017F2112000E7D017F2254
:100A030012000E7D287F2512000EAD487F311200A3
:100A13000E7D0F7F2612000E7D0F7F2012000ED257
:020A2300CD22E2
:1008DA00C2CD7B007A0079437511057F301208A5D5
:1008EA0012089A7D017F2112000E7D017F221200DB
:1008FA000E7D1A7F2412000E7D287F2512000E7DA0
:10090A000F7F2612000E7D0E7F2012000ED2CD22FE
:030000000206EE07
:0C06EE00787FE4F6D8FD75814E020735D8
:050BAF00007F19DFFECC
:010BB400221E
:0A0B920000007F027E0FDEFEDFFC94
:010B9C002236
:080B9D007F367EC7DEFEDFFC9F
:010BA500222D
:080BA6007F6C7E91DEFEDFFC96
:010BAE002224
:0E0B400000007F097E687D8BDDFEDEFCDFFAA3
:010B4E002284
:0E0B4F0000007F167E037DE3DDFEDEFCDFFA94
:010B5D002275
:10002E00EF1FAA0670011E4A60107C137D88ED1D1D
:0A003E00AA0470011C4A60E880F477
:010048002295
:020A6900C18941
:100AE900AFA253073F8FA27598DA75D7E875D6FF7D
:0A0AF900758E14438E01D2BCD2ACFE
:010B030022CF
:100B04003009FDC209C2AFEF30E004C29B8002D2BB
:050B14009BD2AF8F9998
:010B190022B9
:100AA0008B088A09890AAB08AA09A90A1204A0605E
:100AB00013050AE50A7002050914F91204A0FF12D1
:050AC0000B0480E2229E
:03002300020B6B62
:0D0B6B00309802C298309904C299D2093224
:060A6B00C10A021C00009C
:100B1A00438E805389F0758ACD758CD4C28DD2A943
:030B2A00D28C2248
:03000B00020AC521
:040AC500C0E0C0D0FD
:100AC900051DE51D7002051CC3E51D94E8E51C9490
:0B0AD900034008751C00751D00D20AC8
:050AE400D0D0D0E0328B
:020A7100C18B37
:0D0B7800E4F5CF75CDC075CED043AF02229D
:0D0B8500200BFDD20B8FCF200BFDAFCF2238
:03004B00020BB5F0
:060BB50075CDC0C20B3239
:050A7300C18C014E00E2
:100B2D00E4F5947593C3759DC3F5BDF5BE75BC888D
:030B3D00D2AD2214
:03002B000207EDDC
:1007ED00C0E0C0F0C0D075D000C004C005C006C0C8
:1007FD000775BC00E54E14601C04702FAFBDEF757E
:10080D00F004A4AEF0ADBE7C002DF54BEC3EF54AE8
:10081D00754E01801BAFBDEF75F004A4AEF0ADBEFB
:10082D007C002DF54DEC3EF54C8002C20C754E0052
:10083D00E54E4488F5BCD007D006D005D004D0D005
:05084D00D0F0D0E03204
:1005B3004E52462043415220534C41564520444518
:1005C3004D4F0D0A0044454D4F2056657273696FB8
:1005D3006E3A20302E310D0A0054696D6572302059
:1005E300496E69740D0A004E524632344C30312044
:1005F300496E69740D0A004E524632344C30312034
:10060300436865636B2E2E2E0D0A004E524632341C
:100613004C303120436865636B204572726F720DF5
:100623000A004E524632344C303120436865636BC6
:10063300204F4B0D0A004E524632344C303120527B
:1006430058204D6F64650D0A0053797374656D20EE
:0A065300496E6974204F4B0D0A0038
:10065D00E4F597F594F593F592F591F596F595F5F5
:10066D00B2F5B1F5B4F5B3F5CAF5C9F5CCF5CBF5E1
:10067D00E2F5E1D2CCD2AF120AE97BFF7A0579B36C
:10068D00120AA07BFF7A0579C8120AA0120B1A7BF9
:10069D00FF7A0579DC120AA0120A257BFF7A05790B
:1006AD00EA120AA07BFF7A0579FA800F120852EF41
:1006BD00600E120B407BFF7A06790E120AA080ECB9
:1006CD007BFF7A067925120AA0120B401209F37BE3
:1006DD00FF7A067939120AA07BFF7A06794C020A55
:0106ED00A06C
:0800030012065D12077A80FB72
:1006FA00020003E493A3F8E493A34003F68001F213
:10070A0008DFF48029E493A3F85407240CC8C33300
:10071A00C4540F4420C8834004F456800146F6DFCF
:10072A00E4800B0102040810204080900A50E47E05
:10073A00019360BCA3FF543F30E509541FFEE493C4
:10074A00A360010ECF54C025E060A840B8E493A38B
:10075A00FAE493A3F8E493A3C8C582C8CAC583CAB6
:10076A00F0A3C8C582C8CAC583CADFE9DEE780BE6E
:010A7800007D
:1003AA00E709F608DFFA8046E709F208DFFA803E35
:1003BA0088828C83E709F0A3DFFA8032E309F60822
:1003CA00DFFA8078E309F208DFFA807088828C838A
:1003DA00E309F0A3DFFA806489828A83E0A3F6083E
:1003EA00DFFA805889828A83E0A3F208DFFA804C18
:1003FA0080D280FA80C680D4806980F280338010EF
:10040A0080A680EA809A80A880DA80E280CA803357
:10041A0089828A83ECFAE493A3C8C582C8CCC583CF
:10042A00CCF0A3C8C582C8CCC583CCDFE9DEE7809F
:10043A000D89828A83E493A3F608DFF9ECFAA9F01E
:10044A00EDFB2289828A83ECFAE0A3C8C582C8CC74
:10045A00C583CCF0A3C8C582C8CCC583CCDFEADE8D
:10046A00E880DB89828A83E493A3F208DFF980CCEF
:10047A0088F0EF60010E4E60C388F0ED2402B404E8
:10048A000050B9F582EB2402B4040050AF2323458F
:06049A0082239003FA73B7
:1004A000BB010689828A83E0225002E722BBFE025A
:0904B000E32289828A83E493228D
:1004B900F8BB010DE58229F582E5833AF583E8F079
:1004C900225006E92582C8F622BBFE05E92582C825
:0204D900F2220D
:1004DB00BB010A89828A83E0F5F0A3E022500687EC
:1004EB00F009E71922BBFE07E3F5F009E3192289AE
:0B04FB00828A83E493F5F074019322E1
:10050600BB0110E58229F582E5833AF583E0F5F033
:10051600A3E0225009E92582F886F008E622BBFE10
:100526000AE92582F8E2F5F008E222E5832AF58356
:08053600E993F5F0A3E993221B
:10004E00E517240BF8E60517227808300702780B1F
:10005E00E475F00112057D0204A02000EB7F2ED284
:10006E00008018EF540F2490D43440D4FF30040B8A
:10007E00EF24BFB41A0050032461FFE51860021587
:10008E0018051BE51B7002051A30070D7808E4757C
:10009E00F00112057DEF02056B020A797403D20797
:1000AE008003E4C207F5178B088A09890AE4F5185C
:1000BE00F51AF51BE51860077F2012008980F5758B
:1000CE0019FFC201C200C202C203C205C206C208A3
:1000DE00120057FF700D3007057F0012009AAF1BFC
:1000EE00AE1A22B4255FC2D5C204120057FF24D027
:1000FE00B40A00501A75F00A781830D50508B6FF04
:10010E000106C6A426F620D5047002D20380D92497
:10011E00CFB41A00EF5004C2E5D20402029AD20103
:10012E0080C6D20080C0D20280BCD2D580BAD205A1
:10013E0080B47F201200892002077401B518004098
:10014E00F112004EFF1200890200C2D208D20680C0
:10015E009512004EFB12004EFA12004EF94A4B70E9
:10016E0006796B7A037BFF20022EE518602A7E004B
:10017E008E8275830012053E60060EEE651970F0D4
:10018E00C2D5EBC0E0EAC0E0E9C0E0EE1202E1D079
:10019E00E0F9D0E0FAD0E0FB1204A0FF60AAEBC0B9
:1001AE00E0EAC0E0E9C0E0120089D0E02401F9D015
:1001BE00E03400FAD0E0FBE5190460DCD519D980F3
:1001CE00877BFF7A0279DDD202809C7910800279DA
:1001DE0008C206C2088008D2D5790A8004790AC2FC
:1001EE00D5E519047002F519E4FAFDFEFF12004E72
:1001FE00FC7B0820011312004EFD7B1030000A120A
:10020E00004EFE12004EFF7B20EC3382D592D5506D
:10021E0013C3E43000069FFFE49EFEE42001039D1D
:10022E00FDE49CFCE4CBF8C201EC700CCFCECDCC3F
:10023E00E824F8F870F38017C3EF33FFEE33FEEDCA
:10024E0033FDEC33FCEB33FB994002FB0FD8E9EBAB
:10025E00300105F8D0E0C448B201C0E00AEC4D4EC2
:10026E004F78207B0070C2EAB5190040BCC0E01286
:10027E0002E3D0F0D0E0200104C4C0E0C4B201C05B
:10028E00F0120072D0F0D5F0EB0200C212058D0113
:10029E005F5301D95801304C012C4201DD4F01E56D
:0F02AE004401E54901454301EB5501CF4601CF1E
:1002BD004501CF47038B5001342D01382E015B2BA7
:1002CD00013C2301592003742A00F4480000015316
:1002DD003F3F3F00790AA2D5200314300509B9101C
:1002ED00020404B9080104A2D5200602500104201D
:1002FD0002689202B518005034C0E07F2030031917
:10030D007F30A20272067205500F12033AC202C26A
:10031D0006C205C2087F30800F300503E9C0E01228
:10032D000089300503D0E0F9D0E0B518CC300517C1
:10033D007F30B9100C1200897F583004077F788008
:10034D0003B908031200893002057F2D0200897F51
:10035D00202008F87F2B2006F322920280CF286EF2
:10036D00756C6C2900D20112004E3001F8C2017873
:10037D001830D50108F60200F42D504349581200EB
:10038D004E2403B405004001E49003869312007AD5
:0D039D00743A12007AD2037518040201D9D7
:10053E00BB010CE58229F582E5833AF583E0225072
:10054E0006E92582F8E622BBFE06E92582F8E222BC
:0D055E00E58229F582E5833AF583E49322D6
:10056B00BB010689828A83F0225002F722BBFE016F
:02057B00F32269
:10057D00FAE6FB0808E6F925F0F618E6CA3AF6227F
:10058D00D083D082F8E4937012740193700DA3A3FD
:10059D0093F8740193F5828883E473740293686011
:0605AD00EFA3A3A380DF11
:100A7900EFB40A07740D120A84740A309811A89900
:100A8900B8130CC2983098FDA899C298B811F630DD
:070A990099FDC299F59922B5
:00000001FF
