:100A1A004E524632344C30312054785061636B6503
:100A2A00742053656E64204F4B0D0A004E524632B5
:100A3A00344C30312054785061636B6574205365AF
:090A4A006E64204552520D0A00B1
:100AC000300AFD120BBD12087AAB2EAA2FA93012E4
:100AD0000926EFB4200DB2CC7BFF7A0A791A120BEB
:100AE0001E80097BFF7A0A7936120B1EC20A80D05B
:010AF00022E3
:05002600A5A5A5A5A59C
:100B49000527344310100105223443101001012DEB
:040B590008012C085B
:1009A6005396EF43962C5395C3439500D292D29318
:1009B600D294C29553CAFF43CA2053C9DF43C90024
:1009C600D2CD53B2F743B20053B1F743B100D2B21E
:0A09D600120CFDC20BC2CDD292221A
:100813007BFF7A007926C003C002C0017B007A0007
:100823007944A801AC02AD03D001D002D0037E000D
:100833007F0512047A7B007A0079447541057F3085
:10084300120A537B007A007944753A057F10120926
:10085300E0754900E549C394055010AF4974442F2E
:10086300F8E6FFEFB4A504054980E9E549640560AE
:06087300037F01227F005B
:01087900225C
:040C60008F578D58C5
:100C6400C292AF57120CE08F59AF58120CE0D292D7
:020C7400AF5976
:010C7600225B
:02000E008F63FE
:10001000C292AF63120CE07FFF120CE08F64D292A9
:02002000AF64CB
:0100220022BB
:0809E0008F368B378A38893904
:1009E800C292AF36120CE08F3B753C00E53CC395D4
:1009F8003A501A7FFF120CE0AB37AA38A939AE3C3F
:100A08008E82758300EF1204B9053C80DFD292AF65
:010A18003BA2
:010A190022BA
:080A53008F3D8B3E8A3F894074
:100A5B00C292AF3D120CE08F42754300E543C39544
:100A6B00415019AB3E0540E540AA3F7002053F14CB
:100A7B00F91204A0FF120CE0054380E0D292AF42C2
:010A8B002248
:060926008B1C8A1D891ED6
:10092C00C2CDAB1CAA1DA91E852D417FA0120A5356
:10093C00D2CD30B2FD7F0712000E8F1FAD1F7F2767
:10094C00120C60E51F30E40A7DFF7FE1120C607F22
:0C095C001022E51F30E5037F20227FFF02
:01096800226C
:060A8C008B4F8A508951D6
:100A92007F0712000E8F52AD527F27120C60E55273
:100AA20030E618AB4FAA50A951852C3A7F61120942
:0D0AB200E07DFF7FE1120C607F00227F01DC
:010ABF002214
:10096900C2CD7B007A0079227541057F2A120A538C
:100979007D017F21120C607D017F22120C607D2890
:100989007F25120C60AD2C7F31120C607D0F7F2604
:0D099900120C607D0F7F20120C60D2CD2269
:1008DB00C2CD7B007A0079277541057F30120A5310
:1008EB007B007A0079227541057F2A120A537D011C
:1008FB007F21120C607D017F22120C607D1A7F24F8
:10090B00120C607D287F25120C607D0F7F26120C48
:0B091B00607D0E7F20120C60D2CD2208
:100C4200526F636B655F58203D2025780900526F13
:0E0C5200636B65725F59203D2025780D0A0006
:050B5D00032E00003131
:10087A007B017A007900C003C002C0017BFF7A0CB9
:10088A0079428B0B8A0C890D85310E85320FD00186
:10089A00D002D0031200AA7B017A007900120B1E43
:1008AA007B017A007900C003C002C0017BFF7A0C89
:1008BA0079508B0B8A0C890D85330E85340FD00144
:1008CA00D002D0031200AA7B017A007900120B1E13
:0108DA0022FB
:100BBD00AB4AAA4BA94C1204DBF53285F031AB4A96
:100BCD00AA4BA94C758202758300120506F5348572
:030BDD00F03322D0
:03000000020706EE
:0C070600787FE4F6D8FD75817102074D84
:0B0D0A0000756F19156FAF6FEF70F9E7
:010D150022BB
:100C7700000075650275660F1566AF66EF70F915AA
:060C870065AF65EF70F29D
:010C8D002244
:100C8E007567367568C71568AF68EF70F91567AF89
:040C9E0067EF70F29A
:010CA200222F
:100CA30075696C756A91156AAF6AEF70F91569AF6A
:040CB30069EF70F283
:010CB700221A
:100BE0000000755A09755B68755C8B155CAF5CEF2E
:100BF00070F9155BAF5BEF70F2155AAF5AEF70EBFF
:010C000022D1
:100C01000000755D16755E03755FE3155FAF5FEFFD
:100C110070F9155EAF5EEF70F2155DAF5DEF70EBD1
:010C210022B0
:040AF1008E538F543D
:100AF500E5541554AE5370021553FFEF4E6019754A
:100B05005513755688E5561556AE5570021555FFA1
:080B1500EF4E60DC80EF80D898
:010B1D0022B5
:020B6200C18947
:10002E0085A27053703F8570A27598DA75D7E87502
:0C003E00D6FF758E14438E01D2BCD2ACEC
:01004A002293
:020C22008F6BD6
:100C24003009FDC209C2AF856B6CE56C30E004C2CB
:0D0C34009B8002D29BD2AF856B992280E39A
:010C41002290
:100B1E008B608A618962AB60AA61A9621204A0FF30
:100B2E00EF6017AB600562E562AA617002056114A1
:0B0B3E00F91204A0FF120C2280DC2240
:03002300020CF0DC
:0D0CF000309802C298309904C299D209329E
:060B6400C10A026D000051
:100CCD00438E805389F0758ACD758CD4C28DD2A98F
:030CDD00D28C2294
:03000B00020B994C
:040B9900C0E0C0D028
:100B9D00056EE56E7002056DC3E56E94E8E56D9426
:0B0BAD00034008756D00756E00D20A51
:050BB800D0D0D0E032B6
:020B6A00C18B3D
:0D0CFD0075CF0075CDC075CED043AF02227B
:100CE0008F71200BFDD20B8571CF200BFDAFCF2272
:03004B00020003AD
:0600030075CDC0C20B32F6
:050B6C00C18C014E00E8
:100CB8007594007593C3759DC375BD0075BE0075A9
:050CC800BC88D2AD2242
:03002B0002079237
:10079200C0E0C0F0C083C082C0D075D000C000C02D
:1007A20004C005C006C00753BC00E54E12053E0753
:1007B200BB0007D701000007F3AFBD7E04EF8EF048
:1007C200A4FFAEF0ADBE7C00EF2DF54BEE3CF54A3A
:1007D200754E018021AFBD7E04EF8EF0A4FFAEF016
:1007E200ADBE7C00EF2DF54DEE3CF54C754E008014
:1007F20005C20C754E00E54E4488F5BCD007D00604
:10080200D005D004D000D0D0D082D083D0F0D0E0B8
:0108120032B3
:1005B3004E524620434152204D415354455220440C
:1005C300454D4F0D0A0044454D4F205665727369E2
:1005D3006F6E3A20302E310D0A0054696D6572300A
:1005E30020496E69740D0A004E524632344C303144
:1005F30020496E69740D0A004E524632344C303134
:1006030020436865636B2E2E2E0D0A004E52463230
:10061300344C303120436865636B204572726F72CE
:100623000D0A004E524632344C3031204368656324
:100633006B204F4B0D0A004E524632344C30312062
:100643005458204D6F64650D0A0053797374656DBA
:0B06530020496E6974204F4B0D0A0017
:10065E0075970075940075930075920075910075ED
:10066E00960075950075B20075B10075B40075B33E
:10067E000075CA0075C90075CC0075CB0075E20017
:10068E0075E100D2CCD2A2D2AF12002E7BFF7A053A
:10069E0079B3120B1E7BFF7A0579C9120B1E120C51
:1006AE00CD7BFF7A0579DD120B1E1209A67BFF7A30
:1006BE000579EB120B1E7BFF7A0579FB120B1E12CE
:1006CE000813EF600E120BE07BFF7A06790F120B08
:1006DE001E80EC7BFF7A067926120B1E120BE0129F
:1006EE0008DB7BFF7A06793A120B1E120CB87BFFE1
:0806FE007A06794D120B1E2251
:090D160012065E120AC080FB22E5
:10071200020D16E493A3F8E493A34003F68001F2DA
:1007220008DFF48029E493A3F85407240CC8C333E8
:10073200C4540F4420C8834004F456800146F6DFB7
:10074200E4800B0102040810204080900B49E47EF3
:10075200019360BCA3FF543F30E509541FFEE493AC
:10076200A360010ECF54C025E060A840B8E493A373
:10077200FAE493A3F8E493A3C8C582C8CAC583CA9E
:10078200F0A3C8C582C8CAC583CADFE9DEE780BE56
:010B71000083
:1003AA00E709F608DFFA8046E709F208DFFA803E35
:1003BA0088828C83E709F0A3DFFA8032E309F60822
:1003CA00DFFA8078E309F208DFFA807088828C838A
:1003DA00E309F0A3DFFA806489828A83E0A3F6083E
:1003EA00DFFA805889828A83E0A3F208DFFA804C18
:1003FA0080D280FA80C680D4806980F280338010EF
:10040A0080A680EA809A80A880DA80E280CA803357
:10041A0089828A83ECFAE493A3C8C582C8CCC583CF
:10042A00CCF0A3C8C582C8CCC583CCDFE9DEE7809F
:10043A000D89828A83E493A3F608DFF9ECFAA9F01E
:10044A00EDFB2289828A83ECFAE0A3C8C582C8CC74
:10045A00C583CCF0A3C8C582C8CCC583CCDFEADE8D
:10046A00E880DB89828A83E493A3F208DFF980CCEF
:10047A0088F0EF60010E4E60C388F0ED2402B404E8
:10048A000050B9F582EB2402B4040050AF2323458F
:06049A0082239003FA73B7
:1004A000BB010689828A83E0225002E722BBFE025A
:0904B000E32289828A83E493228D
:1004B900F8BB010DE58229F582E5833AF583E8F079
:1004C900225006E92582C8F622BBFE05E92582C825
:0204D900F2220D
:1004DB00BB010A89828A83E0F5F0A3E022500687EC
:1004EB00F009E71922BBFE07E3F5F009E3192289AE
:0B04FB00828A83E493F5F074019322E1
:10050600BB0110E58229F582E5833AF583E0F5F033
:10051600A3E0225009E92582F886F008E622BBFE10
:100526000AE92582F8E2F5F008E222E5832AF58356
:08053600E993F5F0A3E993221B
:10053E00D083D082F8E4937012740193700DA3A34C
:10054E0093F8740193F5828883E473740293686060
:06055E00EFA3A3A380DF60
:10004E00E517240BF8E60517227808300702780B1F
:10005E00E475F0011205A30204A02000EB7F2ED25E
:10006E00008018EF540F2490D43440D4FF30040B8A
:10007E00EF24BFB41A0050032461FFE51860021587
:10008E0018051BE51B7002051A30070D7808E4757C
:10009E00F0011205A3EF020591020B727403D20751
:1000AE008003E4C207F5178B088A09890AE4F5185C
:1000BE00F51AF51BE51860077F2012008980F5758B
:1000CE0019FFC201C200C202C203C205C206C208A3
:1000DE00120057FF700D3007057F0012009AAF1BFC
:1000EE00AE1A22B4255FC2D5C204120057FF24D027
:1000FE00B40A00501A75F00A781830D50508B6FF04
:10010E000106C6A426F620D5047002D20380D92497
:10011E00CFB41A00EF5004C2E5D20402029AD20103
:10012E0080C6D20080C0D20280BCD2D580BAD205A1
:10013E0080B47F201200892002077401B518004098
:10014E00F112004EFF1200890200C2D208D20680C0
:10015E009512004EFB12004EFA12004EF94A4B70E9
:10016E0006796B7A037BFF20022EE518602A7E004B
:10017E008E8275830012056460060EEE651970F0AE
:10018E00C2D5EBC0E0EAC0E0E9C0E0EE1202E1D079
:10019E00E0F9D0E0FAD0E0FB1204A0FF60AAEBC0B9
:1001AE00E0EAC0E0E9C0E0120089D0E02401F9D015
:1001BE00E03400FAD0E0FBE5190460DCD519D980F3
:1001CE00877BFF7A0279DDD202809C7910800279DA
:1001DE0008C206C2088008D2D5790A8004790AC2FC
:1001EE00D5E519047002F519E4FAFDFEFF12004E72
:1001FE00FC7B0820011312004EFD7B1030000A120A
:10020E00004EFE12004EFF7B20EC3382D592D5506D
:10021E0013C3E43000069FFFE49EFEE42001039D1D
:10022E00FDE49CFCE4CBF8C201EC700CCFCECDCC3F
:10023E00E824F8F870F38017C3EF33FFEE33FEEDCA
:10024E0033FDEC33FCEB33FB994002FB0FD8E9EBAB
:10025E00300105F8D0E0C448B201C0E00AEC4D4EC2
:10026E004F78207B0070C2EAB5190040BCC0E01286
:10027E0002E3D0F0D0E0200104C4C0E0C4B201C05B
:10028E00F0120072D0F0D5F0EB0200C212053E0162
:10029E005F5301D95801304C012C4201DD4F01E56D
:0F02AE004401E54901454301EB5501CF4601CF1E
:1002BD004501CF47038B5001342D01382E015B2BA7
:1002CD00013C2301592003742A00F4480000015316
:1002DD003F3F3F00790AA2D5200314300509B9101C
:1002ED00020404B9080104A2D5200602500104201D
:1002FD0002689202B518005034C0E07F2030031917
:10030D007F30A20272067205500F12033AC202C26A
:10031D0006C205C2087F30800F300503E9C0E01228
:10032D000089300503D0E0F9D0E0B518CC300517C1
:10033D007F30B9100C1200897F583004077F788008
:10034D0003B908031200893002057F2D0200897F51
:10035D00202008F87F2B2006F322920280CF286EF2
:10036D00756C6C2900D20112004E3001F8C2017873
:10037D001830D50108F60200F42D504349581200EB
:10038D004E2403B405004001E49003869312007AD5
:0D039D00743A12007AD2037518040201D9D7
:10056400BB010CE58229F582E5833AF583E022504C
:1005740006E92582F8E622BBFE06E92582F8E22296
:0D058400E58229F582E5833AF583E49322B0
:10059100BB010689828A83F0225002F722BBFE0149
:0205A100F32243
:1005A300FAE6FB0808E6F925F0F618E6CA3AF62259
:100B7200EFB40A07740D120B7D740A309811A8990C
:100B8200B8130CC2983098FDA899C298B811F630E3
:070B920099FDC299F59922BB
:00000001FF
