:05061200A5A5A5A5A5AA
:10051500050D344310100105083443101001011373
:0405250008011208AF
:1004C6005396EF43962C5395C3D292D293D294C2AD
:1004D6009543CA2053C9DFD2CD53B2F753B1F7D2F1
:0B04E600B21205CBC201C2CDD292229F
:10032C0078147C007D007BFF7A0679127E007F05B5
:10033C0012011E7B007A007914751D057F301203A3
:10034C007F7B007A007914751D057F1012042BE455
:10035C00FF74142FF8E6B4A5040FBF05F4EF640581
:07036C0060037F01227F0006
:010373002267
:02000E008D144F
:10001000C2921205D88F15AF141205D8D292AF151F
:0100200022BD
:0C05B100C2921205D87FFF1205D8D2922A
:0105BD00221B
:06042B008B1A8A1B891CDC
:10043100C2921205D88F1EE4F51FE51FC3951D500A
:10044100197FFF1205D8AB1AAA1BA91C851F82753B
:0E0451008300EF12015D051F80E0D292AF1E06
:01045F00227A
:0B0374007B007A007908751D057F2AC8
:06037F008B1A8A1B891C89
:10038500C2921205D88F1EE4F51FE51FC3951D50B7
:1003950019AB1A051CE51CAA1B7002051B14F912E2
:0E03A5000144FF1205D8051F80E0D292AF1E62
:0103B3002227
:1003F400C2CD85131D7FA012037FD2CD30B2FD7F05
:10040400071205B18F2CAD2C7F2712000EE52C307E
:10041400E40A7DFF7FE112000E7F1022E52C30E517
:06042400037F20227FFF90
:01042A0022AF
:060460008B268A27892883
:100466007F071205B18F29AD297F2712000EE529D6
:1004760030E618AB26AA27A92885121D7F6112042B
:0D0486002B7DFF7FE112000E7F00227F0121
:010493002246
:10049400C2CD1203747D017F2112000E7D017F22E3
:1004A40012000E7D287F2512000EAD127F3112003E
:1004B4000E7D0F7F2612000E7D0F7F2012000ED2BC
:0204C400CD2247
:1003B400C2CD7B007A00790D751D057F3012037F55
:1003C4001203747D017F2112000E7D017F22120031
:1003D4000E7D1A7F2412000E7D287F2512000E7DCB
:1003E4000F7F2612000E7D0E7F2012000ED2CD222A
:0300000002021BDE
:0C021B00787FE4F6D8FD75812C020262A9
:05000300007F19DFFE83
:0100080022D5
:0A05E50000007F027E0FDEFEDFFC47
:0105EF0022E9
:0805FA007F367EC7DEFEDFFC48
:0106020022D5
:080603007F6C7E91DEFEDFFC3E
:01060B0022CC
:0E05930000007F097E687D8BDDFEDEFCDFFA56
:0105A1002237
:0E05A20000007F167E037DE3DDFEDEFCDFFA47
:0105B0002228
:10053400EF1FAA0670011E4A60107C137D88ED1D12
:0A054400AA0470011C4A60E880F46C
:01054E00228A
:02052900C1808F
:10054F00AFA253073F8FA27598DA75D7E875D6FF1C
:0A055F00758E14438E01D2BCD2AC9D
:01056900226F
:10056A003000FDC200C2AFEF30E004C29B8002D26D
:05057A009BD2AF8F9938
:01057F002259
:100026008B148A158916AB14AA15A91612014460F9
:10003600130516E5167002051514F9120144FF1290
:05004600056A80E222C2
:030023000205BE15
:0D05BE00309802C298309904C299D20032E0
:04052B00022A0000A0
:10058000438E805389F0758ACD758CD4C28DD2A9E3
:03059000D28C22E8
:03000B000204F1FB
:0404F100C0E0C0D0D7
:1004F500052BE52B7002052AC3E52B94E8E52A9424
:0B050500034008752A00752B00D2028D
:05051000D0D0D0E03264
:02052F00C18188
:0D05CB00E4F5CF75CDC075CED043AF022250
:0D05D8002001FDD2018FCF2001FDAFCF2209
:03004B0002060C9E
:06060C0075CDC0C20132F1
:10017F004E52462043415220534C41564520444550
:10018F004D4F0D0A0044454D4F2056657273696FF0
:10019F006E3A20302E310D0A004E524632344C301A
:1001AF003120496E69740D0A004E524632344C307C
:1001BF003120436865636B2E2E2E0D0A004E52467A
:1001CF0032344C303120436865636B204572726F57
:1001DF00720D0A004E524632344C3031204368655E
:1001EF00636B204F4B0D0A004E524632344C303168
:1001FF00205258204D6F64650D0A00537973746552
:0C020F006D20496E6974204F4B0D0A00F1
:02053100C10205
:1002A700E4F597F594F593F592F591F596F595F5AF
:1002B700B2F5B1F5B4F5B3F5CAF5C9F5CCF5CBF59B
:1002C700E2F5E1D2CCD2AF12054F7BFF7A01797FFD
:1002D7001200267BFF7A0179941200261204C67B4E
:1002E700FF7A0179A81200267BFF7A0179B8800F7F
:1002F70012032CEF600E1205937BFF7A0179CC1263
:10030700002680EC7BFF7A0179E312002612059321
:100317001204947BFF7A0179F71200267BFF7A0299
:05032700790A02002626
:0A05F0001202A73002FDC20280F9DA
:100227000205F0E493A3F8E493A34003F68001F2F8
:1002370008DFF48029E493A3F85407240CC8C333D8
:10024700C4540F4420C8834004F456800146F6DFA7
:10025700E4800B0102040810204080900515E47E1D
:10026700019360BCA3FF543F30E509541FFEE4939C
:10027700A360010ECF54C025E060A840B8E493A363
:10028700FAE493A3F8E493A3C8C582C8CAC583CA8E
:10029700F0A3C8C582C8CAC583CADFE9DEE780BE46
:0105330000C7
:10004E00E709F608DFFA8046E709F208DFFA803E94
:10005E0088828C83E709F0A3DFFA8032E309F60881
:10006E00DFFA8078E309F208DFFA807088828C83E9
:10007E00E309F0A3DFFA806489828A83E0A3F6089D
:10008E00DFFA805889828A83E0A3F208DFFA804C77
:10009E0080D280FA80C680D4806980F2803380104E
:1000AE0080A680EA809A80A880DA80E280CA8033B7
:1000BE0089828A83ECFAE493A3C8C582C8CCC5832F
:1000CE00CCF0A3C8C582C8CCC583CCDFE9DEE780FF
:1000DE000D89828A83E493A3F608DFF9ECFAA9F07E
:1000EE00EDFB2289828A83ECFAE0A3C8C582C8CCD4
:1000FE00C583CCF0A3C8C582C8CCC583CCDFEADEED
:10010E00E880DB89828A83E493A3F208DFF980CC4E
:10011E0088F0EF60010E4E60C388F0ED2402B40447
:10012E000050B9F582EB2402B4040050AF232345EE
:06013E00822390009E7375
:10014400BB010689828A83E0225002E722BBFE02B9
:09015400E32289828A83E49322EC
:10015D00F8BB010DE58229F582E5833AF583E8F0D8
:10016D00225006E92582C8F622BBFE05E92582C884
:02017D00F2226C
:00000001FF
