:05002600A5A5A5A5A59C
:0E08AF00054734431010010542344310100178
:1009F0005396EF43962C5395C3D292D293D294C27E
:100A00009543CA2053C9DFD2CD53B2F753B1F7D2C1
:0B0A1000B2120B42C20AC2CDD29222E9
:10079F0078697C007D007BFF7A0079267E007F05DB
:1007AF0012047A7B007A007969755F057F30120831
:1007BF003A7B007A0079697558057F10120924E495
:1007CF00FF74692FF8E6B4A5040FBF05F4EF6405B5
:0707DF0060037F01227F008F
:0107E60022F0
:02000E008D6EF5
:10001000C292120B4F8F6FAF6E120B4FD292AF6F17
:0100200022BD
:0C0B2800C292120B4F7FFF120B4FD292B3
:010B3400229E
:060924008B558A5689572D
:10092A00C292120B4F8F59E4F55AE55AC3955850A3
:10093A00197FFF120B4FAB55AA56A957855A8275D4
:0E094A008300EF1204B9055A80E0D292AF5933
:01095800227C
:0B082F007B007A007942755F057F2A8C
:06083A008B5C8A5D895E03
:10084000C292120B4F8F60E4F561E561C3955F5072
:1008500019AB5C055EE55EAA5D7002055D14F912D8
:0E08600004A0FF120B4F056180E0D292AF6042
:01086E002267
:1008ED00C2CD755F207FA012083AD2CD20B2FD7F18
:1008FD0007120B288F72AD727F2712000EE5723032
:10090D00E40A7DFF7FE112000E7F1022E57230E5D3
:06091D00037F20227FFF92
:0109230022B1
:060959008B1C8A1D891EA3
:10095F007F07120B288F1FAD1F7F2712000EE51F79
:10096F0030E618AB1CAA1DA91E7558207F6112090D
:0D097F00247DFF7FE112000E7F00227F012A
:01098C002248
:10098D00C2CD12082F7D017F2112000E7D017F2225
:10099D0012000E7D287F2512000E7D207F31120062
:1009AD000E7D0F7F2612000E7D0F7F2012000ED2BE
:0209BD00CD2249
:10086F00C2CD7B007A007947755F057F3012083A59
:10087F0012082F7D017F2112000E7D017F221200B1
:10088F000E7D1A7F2412000E7D287F2512000E7D0B
:10089F000F7F2612000E7D0E7F2012000ED2CD226A
:1007E700526F636B65725F4C5F58203D2025752003
:1007F7000A00526F636B65725F4C5F59203D20257D
:1008070075200A00526F636B65725F525F58203D17
:10081700202575200A00526F636B65725F525F591E
:08082700203D202575200A0088
:10061E00E4FF120AA98E4C8F4D7F01120AA98E4E4D
:10062E008F4F7F06120AA98E508F517F07120AA98B
:10063E008E528F53750BFF750C07750DE7854C0E9B
:10064E00854D0F7B017A0079001200AA7B017A009A
:10065E007900120A42750BFF750C07750DF9854E60
:10066E000E854F0F7B017A0079001200AA7B017A6A
:10067E00007900120A42750BFF750C08750D0B857B
:10068E00500E85510F7B017A0079001200AA7B0172
:10069E007A007900120A42750BFF750C08750D1D54
:1006AE0085520E85530F7B017A0079001200AA7BCA
:0806BE00017A007900020A42F2
:030000000206C62F
:0C06C600787FE4F6D8FD75817202070D04
:05000300007F19DFFE83
:0100080022D5
:0A0B5C0000007F027E0FDEFEDFFCCA
:010B6600226C
:080B67007F367EC7DEFEDFFCD5
:010B6F002263
:080B70007F6C7E91DEFEDFFCCC
:010B7800225A
:0E0AFB0000007F097E687D8BDDFEDEFCDFFAE9
:010B090022C9
:0E0B0A0000007F167E037DE3DDFEDEFCDFFAD9
:010B180022BA
:0208BD00C189EF
:10002E00E5A2543FF5A27598DA75D7E875D6FF7537
:0A003E008E14438E01D2BCD2AC2216
:100AC1003009FDC209C2AFEF30D004C29B8002D20F
:060AD1009BD2AF8F9922B9
:100A42008B088A09890AAB08AA09A90A1204A060BC
:100A520013050AE50A7002050914F91204A0FF122F
:050A62000AC180E22240
:03002300020B3598
:0D0B3500309802C298309904C299D209325A
:0408BF0002700000C3
:100AD700438E805389F0758ACD758CD4C28DD2A987
:030AE700D28C228C
:03000B00020A677F
:040A6700C0E0C0D05B
:100A6B000571E57170020570C3E57194E8E570944A
:0B0A7B00034008757000757100D20C7C
:050A8600D0D0D0E032E9
:0208C300C18AE8
:0D0B4200E4F5CF75CDC075CED043AF0222D3
:0D0B4F00200AFDD20A8FCF200AFDAFCF2271
:03004B00020B8223
:060B820075CDC0C20A326D
:0208C500C18BE5
:100AEA00E4F5947593C3759DC3F5BD75BC88C2AD15
:010AFA0022D9
:03002B00020B794C
:090B790053BCEF75BC00C20B3245
:100AA900EF4488F5BC00000000E5BC30E4FB53BC12
:070AB900EFD20BAFBD7E0080
:010AC0002213
:040752008F628D63C2
:10075600E4F567F566F565F564F568E568C39563E0
:100766005023AF62120AA9E4FCFDE5672FF567E5A1
:10077600663EF566ED3565F565EC3564F564120B98
:1007860067056380D6AF63AB07E4FAF9F8AF67AEE7
:0807960066AD65AC64120517A5
:01079E002238
:0F0B190053797374656D20496E6974204F4B00DA
:1008C700C10C20202248656C6C6F20576F726C64D6
:1008D70021000000000000000000000000000000F0
:0508E70000000000000C
:1009BF00E4F597F594F593F592F591F596F595F590
:1009CF00B2F5B1F5B4F5B3F5CAF5C9F5CCF5CBF57C
:1009DF00E2F5E1D2CC12002E120AD7120AEAD2AFF8
:0109EF0022E5
:100A8B001209BF120AFB7BFF7A0B7919120A421269
:0E0A9B000AFB300CFDC20C12061EB2CC80F419
:1006D200020A8BE493A3F8E493A34003F68001F2A9
:1006E20008DFF48029E493A3F85407240CC8C33329
:1006F200C4540F4420C8834004F456800146F6DFF8
:10070200E4800B01020408102040809008AFE47ED0
:10071200019360BCA3FF543F30E509541FFEE493EC
:10072200A360010ECF54C025E060A840B8E493A3B3
:10073200FAE493A3F8E493A3C8C582C8CAC583CADE
:10074200F0A3C8C582C8CAC583CADFE9DEE780BE96
:0108EC00000B
:1003AA00E709F608DFFA8046E709F208DFFA803E35
:1003BA0088828C83E709F0A3DFFA8032E309F60822
:1003CA00DFFA8078E309F208DFFA807088828C838A
:1003DA00E309F0A3DFFA806489828A83E0A3F6083E
:1003EA00DFFA805889828A83E0A3F208DFFA804C18
:1003FA0080D280FA80C680D4806980F280338010EF
:10040A0080A680EA809A80A880DA80E280CA803357
:10041A0089828A83ECFAE493A3C8C582C8CCC583CF
:10042A00CCF0A3C8C582C8CCC583CCDFE9DEE7809F
:10043A000D89828A83E493A3F608DFF9ECFAA9F01E
:10044A00EDFB2289828A83ECFAE0A3C8C582C8CC74
:10045A00C583CCF0A3C8C582C8CCC583CCDFEADE8D
:10046A00E880DB89828A83E493A3F208DFF980CCEF
:10047A0088F0EF60010E4E60C388F0ED2402B404E8
:10048A000050B9F582EB2402B4040050AF2323458F
:06049A0082239003FA73B7
:1004A000BB010689828A83E0225002E722BBFE025A
:0904B000E32289828A83E493228D
:1004B900F8BB010DE58229F582E5833AF583E8F079
:1004C900225006E92582C8F622BBFE05E92582C825
:0204D900F2220D
:1004DB0075F008758200EF2FFFEE33FECD33CDCCD8
:1004EB0033CCC58233C5829BED9AEC99E58298405B
:1004FB000CF582EE9BFEED9AFDEC99FC0FD5F0D638
:10050B00E4CEFBE4CDFAE4CCF9A88222B800C1B961
:10051B000059BA002DEC8BF084CFCECDFCE5F0CB9F
:10052B00F97818EF2FFFEE33FEED33FDEC33FCEBD8
:10053B0033FB10D703994004EB99FB0FD8E5E4F993
:10054B00FA227818EF2FFFEE33FEED33FDEC33FC80
:10055B00C933C910D7059BE99A4007EC9BFCE99A74
:10056B00F90FD8E0E4C9FAE4CCFB2275F010EF2FB9
:10057B00FFEE33FEED33FDCC33CCC833C810D707B9
:10058B009BEC9AE899400AED9BFDEC9AFCE899F8F4
:0E059B000FD5F0DAE4CDFBE4CCFAE4C8F92287
:10004E00E517240BF8E60517227808300702780B1F
:10005E00E475F0011205E80204A02000EB7F2ED219
:10006E00008018EF540F2490D43440D4FF30040B8A
:10007E00EF24BFB41A0050032461FFE51860021587
:10008E0018051BE51B7002051A30070D7808E4757C
:10009E00F0011205E8EF0205D6020A1B7403D2071F
:1000AE008003E4C207F5178B088A09890AE4F5185C
:1000BE00F51AF51BE51860077F2012008980F5758B
:1000CE0019FFC201C200C202C203C205C206C208A3
:1000DE00120057FF700D3007057F0012009AAF1BFC
:1000EE00AE1A22B4255FC2D5C204120057FF24D027
:1000FE00B40A00501A75F00A781830D50508B6FF04
:10010E000106C6A426F620D5047002D20380D92497
:10011E00CFB41A00EF5004C2E5D20402029AD20103
:10012E0080C6D20080C0D20280BCD2D580BAD205A1
:10013E0080B47F201200892002077401B518004098
:10014E00F112004EFF1200890200C2D208D20680C0
:10015E009512004EFB12004EFA12004EF94A4B70E9
:10016E0006796B7A037BFF20022EE518602A7E004B
:10017E008E827583001205A960060EEE651970F069
:10018E00C2D5EBC0E0EAC0E0E9C0E0EE1202E1D079
:10019E00E0F9D0E0FAD0E0FB1204A0FF60AAEBC0B9
:1001AE00E0EAC0E0E9C0E0120089D0E02401F9D015
:1001BE00E03400FAD0E0FBE5190460DCD519D980F3
:1001CE00877BFF7A0279DDD202809C7910800279DA
:1001DE0008C206C2088008D2D5790A8004790AC2FC
:1001EE00D5E519047002F519E4FAFDFEFF12004E72
:1001FE00FC7B0820011312004EFD7B1030000A120A
:10020E00004EFE12004EFF7B20EC3382D592D5506D
:10021E0013C3E43000069FFFE49EFEE42001039D1D
:10022E00FDE49CFCE4CBF8C201EC700CCFCECDCC3F
:10023E00E824F8F870F38017C3EF33FFEE33FEEDCA
:10024E0033FDEC33FCEB33FB994002FB0FD8E9EBAB
:10025E00300105F8D0E0C448B201C0E00AEC4D4EC2
:10026E004F78207B0070C2EAB5190040BCC0E01286
:10027E0002E3D0F0D0E0200104C4C0E0C4B201C05B
:10028E00F0120072D0F0D5F0EB0200C21205F801A8
:10029E005F5301D95801304C012C4201DD4F01E56D
:0F02AE004401E54901454301EB5501CF4601CF1E
:1002BD004501CF47038B5001342D01382E015B2BA7
:1002CD00013C2301592003742A00F4480000015316
:1002DD003F3F3F00790AA2D5200314300509B9101C
:1002ED00020404B9080104A2D5200602500104201D
:1002FD0002689202B518005034C0E07F2030031917
:10030D007F30A20272067205500F12033AC202C26A
:10031D0006C205C2087F30800F300503E9C0E01228
:10032D000089300503D0E0F9D0E0B518CC300517C1
:10033D007F30B9100C1200897F583004077F788008
:10034D0003B908031200893002057F2D0200897F51
:10035D00202008F87F2B2006F322920280CF286EF2
:10036D00756C6C2900D20112004E3001F8C2017873
:10037D001830D50108F60200F42D504349581200EB
:10038D004E2403B405004001E49003869312007AD5
:0D039D00743A12007AD2037518040201D9D7
:1005A900BB010CE58229F582E5833AF583E0225007
:1005B90006E92582F8E622BBFE06E92582F8E22251
:0D05C900E58229F582E5833AF583E493226B
:1005D600BB010689828A83F0225002F722BBFE0104
:0205E600F322FE
:1005E800FAE6FB0808E6F925F0F618E6CA3AF62214
:1005F800D083D082F8E4937012740193700DA3A392
:1006080093F8740193F5828883E4737402936860A5
:06061800EFA3A3A380DFA5
:100A1B00EFB40A07740D120A26740A309811A899BC
:100A2B00B8130CC2983098FDA899C298B811F6303B
:070A3B0099FDC299F5992213
:00000001FF
