:05002600A5A5A5A5A59C
:0E079C0005333443101001052E3443101001B4
:1009B4005396EF43962C5395C3D292D293D294C2BA
:1009C4009543CA2053C9DFD2CD53B2F753B1F7D2FE
:0B09D400B2120B10C20AC2CDD2922258
:1007540078227C007D007BFF7A0079267E007F056D
:1007640012047A7B007A007922752B057F301208F7
:100774006D7B007A007922752B057F10120919E42C
:10078400FF74222FF8E6B4A5040FBF05F4EF640547
:0707940060037F01227F00DA
:01079B00223B
:02000E008D263D
:10001000C292120B1D8F27AF26120B1DD292AF2753
:0100200022BD
:0C0AF600C292120B1D7FFF120B1DD2924A
:010B020022D0
:060919008B288A29892ABF
:10091F00C292120B1D8F2CE4F52DE52DC3952B5094
:10092F00197FFF120B1DAB28AA29A92A852D8275C5
:0E093F008300EF1204B9052D80E0D292AF2C98
:01094D002287
:0B0862007B007A00792E752B057F2AA1
:06086D008B288A29892A6C
:10087300C292120B1D8F2CE4F52DE52DC3952B5041
:1008830019AB28052AE52AAA297002052914F912A9
:0E08930004A0FF120B1D052D80E0D292AF2CA9
:0108A1002234
:1008E200C2CD752B207FA012086DD2CD30B2FD7F14
:1008F20007120AF68F1EAD1E7F2712000EE51E306C
:10090200E40A7DFF7FE112000E7F1022E51E30E532
:06091200037F20227FFF9D
:0109180022BC
:06094E008B228A2389249C
:100954007F07120AF68F25AD257F2712000EE525A5
:1009640030E618AB22AA23A924752B207F61120933
:0D097400197DFF7FE112000E7F00227F0140
:010981002253
:10098200C2CD1208627D017F2112000E7D017F22FD
:1009920012000E7D287F2512000E7D207F3112006D
:1009A2000E7D0F7F2612000E7D0F7F2012000ED2C9
:0209B200CD2254
:1008A200C2CD7B007A007933752B057F3012086D3B
:1008B2001208627D017F2112000E7D017F2212004B
:1008C2000E7D1A7F2412000E7D287F2512000E7DD8
:1008D2000F7F2612000E7D0E7F2012000ED2CD2237
:100A4F00526F636B65725F4C5F58203D20257509AF
:100A5F0000526F636B65725F4C5F59203D202575A7
:030A6F000D0A006D
:1007DE00750BFF750C0A750D4F85410E85420F7B0B
:1007EE00017A0079301200AA7B017A007930120A60
:1007FE0006750BFF750C0A750D6085430E85440F4B
:10080E007B017A0079301200AA7B017A00793002DE
:02081E000A06C8
:0F0AC900853841853942853A43853B440207DE33
:030000000205F105
:0C05F100787FE4F6D8FD758148020638DA
:05000300007F19DFFE83
:0100080022D5
:0A0B2A0000007F027E0FDEFEDFFCFC
:010B3400229E
:080B35007F367EC7DEFEDFFC07
:010B3D002295
:080B3E007F6C7E91DEFEDFFCFE
:010B4600228C
:0E0AD80000007F097E687D8BDDFEDEFCDFFA0C
:010AE60022ED
:0E0AE70000007F167E037DE3DDFEDEFCDFFAFD
:010AF50022DE
:10002E00EF1FAA0670011E4A60107C137D88ED1D1D
:0A003E00AA0470011C4A60E880F477
:010048002295
:0207AA00C18903
:100A7200AFA253073F8FA27598DA75D7E875D6FFF4
:0A0A8200758E14438E01D2BCD2AC75
:010A8C002247
:100A8D003009FDC209C2AFEF30E004C29B8002D233
:050A9D009BD2AF8F9910
:010AA2002231
:100A06008B228A238924AB22AA23A9241204A0605C
:100A1600130524E5247002052314F91204A0FF121D
:050A26000A8D80E222B0
:03002300020B03CA
:0D0B0300309802C298309904C299D209328C
:0407AC00021C00002B
:100AA300438E805389F0758ACD758CD4C28DD2A9BB
:030AB300D28C22C0
:03000B00020A2BBB
:040A2B00C0E0C0D097
:100A2F00051DE51D7002051CC3E51D94E8E51C942A
:0B0A3F00034008751C00751D00D20C60
:050A4A00D0D0D0E03225
:0207B000C18AFC
:0D0B1000E4F5CF75CDC075CED043AF022205
:0D0B1D00200AFDD20A8FCF200AFDAFCF22A3
:03004B00020B475E
:060B470075CDC0C20A32A8
:0507B200C18B014000B5
:100AB600E4F5947593C3759DC3F5BDF5BE75BC8805
:030AC600D2AD228C
:03002B000206ECDE
:1006EC00C0E0C0F0C0D075D000C004C005C006C0CA
:1006FC000775BC00E54014601C047032AFBDEF758B
:10070C00F004A4AEF0ADBE7C002DF539EC3EF5380E
:10071C00754001801EAFBDEF75F004A4AEF0ADBE08
:10072C007C002DF53BEC3EF53A7540068005C20B7E
:10073C00754000E5404488F5BCD007D006D005D004
:08074C0004D0D0D0F0D0E0325F
:100550004E52462043415220534C4156450D0A000D
:1005600044454D4F2056657273696F6E3A20302EA8
:10057000310D0A0053797374656D20496E697420DA
:100580004F4B0D0A004E524632344C3031204368F6
:1005900065636B2E2E2E0D0A004E524632344C30BF
:1005A0003120436865636B204572726F720D0A00DB
:1005B0004E524632344C303120436865636B204FD5
:1005C0004B0D0A004E524632344C303120525820E6
:1005D0004D6F64650D0A00476574204E52463234F3
:1005E0004C3031205278205061636B65743A0D0AAB
:0105F000000A
:1007B700C10C602000006162636465666768696AEE
:1007C7006B6C6D6E6F707172737479757778797AF7
:0607D7003132333435001D
:10082000E4F597F594F593F592F591F596F595F530
:10083000B2F5B1F5B4F5B3F5CAF5C9F5CCF5CBF51C
:10084000E2F5E1D2CCD2AF120A727BFF7A05795081
:10085000120A067BFF7A057960120A06120AA302C1
:0208600009B4D9
:10067D001208207BFF7A057974120A067BFF7A0532
:10068D007985800F120754EF600E120AD87BFF7A1E
:10069D00057999120A0680EC7BFF7A0579B0120A6A
:1006AD00061209827BFF7A0579C4120A06300C0204
:1006BD00C20C7B017A00792012094EEF70EF7BFF9F
:1006CD007A0579D7120A0690003D740DF0A3740ACD
:0F06DD00F0E4A3F07B017A007920120A0680CEA8
:1005FD0002067DE493A3F8E493A34003F68001F291
:10060D0008DFF48029E493A3F85407240CC8C333FE
:10061D00C4540F4420C8834004F456800146F6DFCD
:10062D00E4800B010204081020408090079CE47EBA
:10063D00019360BCA3FF543F30E509541FFEE493C2
:10064D00A360010ECF54C025E060A840B8E493A389
:10065D00FAE493A3F8E493A3C8C582C8CAC583CAB4
:10066D00F0A3C8C582C8CAC583CADFE9DEE780BE6C
:0107DD00001B
:1003AA00E709F608DFFA8046E709F208DFFA803E35
:1003BA0088828C83E709F0A3DFFA8032E309F60822
:1003CA00DFFA8078E309F208DFFA807088828C838A
:1003DA00E309F0A3DFFA806489828A83E0A3F6083E
:1003EA00DFFA805889828A83E0A3F208DFFA804C18
:1003FA0080D280FA80C680D4806980F280338010EF
:10040A0080A680EA809A80A880DA80E280CA803357
:10041A0089828A83ECFAE493A3C8C582C8CCC583CF
:10042A00CCF0A3C8C582C8CCC583CCDFE9DEE7809F
:10043A000D89828A83E493A3F608DFF9ECFAA9F01E
:10044A00EDFB2289828A83ECFAE0A3C8C582C8CC74
:10045A00C583CCF0A3C8C582C8CCC583CCDFEADE8D
:10046A00E880DB89828A83E493A3F208DFF980CCEF
:10047A0088F0EF60010E4E60C388F0ED2402B404E8
:10048A000050B9F582EB2402B4040050AF2323458F
:06049A0082239003FA73B7
:1004A000BB010689828A83E0225002E722BBFE025A
:0904B000E32289828A83E493228D
:1004B900F8BB010DE58229F582E5833AF583E8F079
:1004C900225006E92582C8F622BBFE05E92582C825
:0204D900F2220D
:10004E00E517240BF8E60517227808300702780B1F
:10005E00E475F00112051A0204A02000EB7F2ED2E7
:10006E00008018EF540F2490D43440D4FF30040B8A
:10007E00EF24BFB41A0050032461FFE51860021587
:10008E0018051BE51B7002051A30070D7808E4757C
:10009E00F00112051AEF0205080209DF7403D207F8
:1000AE008003E4C207F5178B088A09890AE4F5185C
:1000BE00F51AF51BE51860077F2012008980F5758B
:1000CE0019FFC201C200C202C203C205C206C208A3
:1000DE00120057FF700D3007057F0012009AAF1BFC
:1000EE00AE1A22B4255FC2D5C204120057FF24D027
:1000FE00B40A00501A75F00A781830D50508B6FF04
:10010E000106C6A426F620D5047002D20380D92497
:10011E00CFB41A00EF5004C2E5D20402029AD20103
:10012E0080C6D20080C0D20280BCD2D580BAD205A1
:10013E0080B47F201200892002077401B518004098
:10014E00F112004EFF1200890200C2D208D20680C0
:10015E009512004EFB12004EFA12004EF94A4B70E9
:10016E0006796B7A037BFF20022EE518602A7E004B
:10017E008E827583001204DB60060EEE651970F038
:10018E00C2D5EBC0E0EAC0E0E9C0E0EE1202E1D079
:10019E00E0F9D0E0FAD0E0FB1204A0FF60AAEBC0B9
:1001AE00E0EAC0E0E9C0E0120089D0E02401F9D015
:1001BE00E03400FAD0E0FBE5190460DCD519D980F3
:1001CE00877BFF7A0279DDD202809C7910800279DA
:1001DE0008C206C2088008D2D5790A8004790AC2FC
:1001EE00D5E519047002F519E4FAFDFEFF12004E72
:1001FE00FC7B0820011312004EFD7B1030000A120A
:10020E00004EFE12004EFF7B20EC3382D592D5506D
:10021E0013C3E43000069FFFE49EFEE42001039D1D
:10022E00FDE49CFCE4CBF8C201EC700CCFCECDCC3F
:10023E00E824F8F870F38017C3EF33FFEE33FEEDCA
:10024E0033FDEC33FCEB33FB994002FB0FD8E9EBAB
:10025E00300105F8D0E0C448B201C0E00AEC4D4EC2
:10026E004F78207B0070C2EAB5190040BCC0E01286
:10027E0002E3D0F0D0E0200104C4C0E0C4B201C05B
:10028E00F0120072D0F0D5F0EB0200C212052A0176
:10029E005F5301D95801304C012C4201DD4F01E56D
:0F02AE004401E54901454301EB5501CF4601CF1E
:1002BD004501CF47038B5001342D01382E015B2BA7
:1002CD00013C2301592003742A00F4480000015316
:1002DD003F3F3F00790AA2D5200314300509B9101C
:1002ED00020404B9080104A2D5200602500104201D
:1002FD0002689202B518005034C0E07F2030031917
:10030D007F30A20272067205500F12033AC202C26A
:10031D0006C205C2087F30800F300503E9C0E01228
:10032D000089300503D0E0F9D0E0B518CC300517C1
:10033D007F30B9100C1200897F583004077F788008
:10034D0003B908031200893002057F2D0200897F51
:10035D00202008F87F2B2006F322920280CF286EF2
:10036D00756C6C2900D20112004E3001F8C2017873
:10037D001830D50108F60200F42D504349581200EB
:10038D004E2403B405004001E49003869312007AD5
:0D039D00743A12007AD2037518040201D9D7
:1004DB00BB010CE58229F582E5833AF583E02250D6
:1004EB0006E92582F8E622BBFE06E92582F8E22220
:0D04FB00E58229F582E5833AF583E493223A
:10050800BB010689828A83F0225002F722BBFE01D2
:02051800F322CC
:10051A00FAE6FB0808E6F925F0F618E6CA3AF622E2
:10052A00D083D082F8E4937012740193700DA3A360
:10053A0093F8740193F5828883E473740293686074
:06054A00EFA3A3A380DF74
:1009DF00EFB40A07740D1209EA740A309811A89936
:1009EF00B8130CC2983098FDA899C298B811F63078
:0709FF0099FDC299F5992250
:00000001FF
