:05002600A5A5A5A5A59C
:0E055C0005193443101001051434431010012A
:10050D005396EF43962C5395C3D292D293D294C265
:10051D009543CA2053C9DFD2CD53B2F753B1F7D2A9
:0B052D00B2120616C201C2CDD292220B
:1003340078087C007D007BFF7A0079267E007F05AB
:1003440012011E7B007A0079087511057F301203B3
:10035400877B007A0079087511057F10120472E416
:10036400FF74082FF8E6B4A5040FBF05F4EF640585
:0703740060037F01227F00FE
:01037B00225F
:02000E008D0C57
:10001000C2921206238F0DAF0C120623D292AF0D9F
:0100200022BD
:0C05EF00C2921206237FFF120623D29254
:0105FB0022DD
:060472008B0E8A0F8910B9
:10047800C2921206238F12E4F513E513C3951150A7
:10048800197FFF120623AB0EAA0FA91085138275D8
:0E0498008300EF12015D051380E0D292AF12D7
:0104A6002233
:0B037C007B007A0079147511057F2AC0
:060387008B0E8A0F8910A5
:10038D00C2921206238F12E4F513E513C395115093
:10039D0019AB0E0510E510AA0F7002050F14F91216
:0E03AD000144FF120623051380E0D292AF1226
:0103BB00221F
:10043B00C2CD7511207FA0120387D2CD20B2FD7FD4
:10044B00071205EF8F32AD327F2712000EE53230E7
:10045B00E40A7DFF7FE112000E7F1022E53230E5CA
:06046B00037F20227FFF49
:010471002268
:0604A7008B088A09890A96
:1004AD007F071205EF8F0BAD0B7F2712000EE50BAB
:1004BD0030E618AB08AA09A90A7511207F6112044C
:0D04CD00727DFF7FE112000E7F00227F0193
:0104DA0022FF
:1004DB00C2CD12037C7D017F2112000E7D017F2294
:1004EB0012000E7D287F2512000E7D207F31120019
:1004FB000E7D0F7F2612000E7D0F7F2012000ED275
:02050B00CD22FF
:1003BC00C2CD7B007A0079197511057F3012038745
:1003CC0012037C7D017F2112000E7D017F22120021
:1003DC000E7D1A7F2412000E7D287F2512000E7DC3
:1003EC000F7F2612000E7D0E7F2012000ED2CD2222
:01000A0022D3
:0D05FC0085212A85222B85232C85242D2284
:0300000002017F7B
:0C017F00787FE4F6D8FD7581320201C6DD
:05064D00007F19DFFE33
:010652002285
:0A06300000007F027E0FDEFEDFFCFB
:01063A00229D
:08063B007F367EC7DEFEDFFC06
:010643002294
:080644007F6C7E91DEFEDFFCFD
:01064C00228B
:0E05D10000007F097E687D8BDDFEDEFCDFFA18
:0105DF0022F9
:0E05E00000007F167E037DE3DDFEDEFCDFFA09
:0105EE0022EA
:10002E00EF1FAA0670011E4A60107C137D88ED1D1D
:0A003E00AA0470011C4A60E880F477
:010048002295
:02056A00C1804E
:10057A00AFA253073F8FA27598DA75D7E875D6FFF1
:0A058A00758E14438E01D2BCD2AC72
:010594002244
:100595003000FDC200C2AFEF30E004C29B8002D242
:0505A5009BD2AF8F990D
:0105AA00222E
:070003008B088A09890A221B
:03002300020609C9
:0D060900309802C298309904C299D2003294
:04056C00021E00006B
:1005AB00438E805389F0758ACD758CD4C28DD2A9B8
:0305BB00D28C22BD
:03000B00020538B3
:04053800C0E0C0D08F
:10053C00051FE51F7002051EC3E51F94E8E51E9418
:0B054C00034008751E00751F00D2035D
:05055700D0D0D0E0321D
:02057000C18147
:0D061600E4F5CF75CDC075CED043AF022204
:0D0623002001FDD2018FCF2001FDAFCF22BD
:03004B0002065357
:0606530075CDC0C20132AA
:05057200C18201290017
:1005BE00E4F5947593C3759DC3F5BDF5BE75BC8802
:0305CE00D2AD2289
:03002B0002020BC3
:10020B00C0E0C0F0C0D075D000C004C005C006C0AF
:10021B000775BC00E52914601C047032AFBDEF7587
:10022B00F004A4AEF0ADBE7C002DF522EC3EF52122
:10023B00752901801EAFBDEF75F004A4AEF0ADBE05
:10024B007C002DF524EC3EF5237529068005C202B2
:10025B00752900E5294488F5BCD007D006D005D018
:08026B0004D0D0D0F0D0E03245
:100273004E52465F4341525F534C4156450D0A006F
:1002830044454D4F2056657273696F6E3A20302E88
:10029300310D0A0053797374656D20496E697420BA
:1002A3004F4B0D0A004E524632344C3031204368D6
:1002B30065636B0D0A004E524632344C3031204593
:1002C30072726F720D0A004E524632344C30312036
:0502D3004F4B0D0A0075
:02057700C103BE
:1003FC00E4F597F594F593F592F591F596F595F559
:10040C00B2F5B1F5B4F5B3F5CAF5C9F5CCF5CBF544
:10041C00E2F5E1D2CCD2AF7BFF7A02797312000302
:0F042C007BFF7A0279831200031205AB02050DE4
:1002D8001203FC7BFF7A0279971200037BFF7A02F4
:1002E80079A8800F120334EF600E1205D17BFF7AD4
:1002F8000279B912000380EC7BFF7A0279CA1200F6
:10030800031204DBC203B2CC7B017A007900120429
:10031800A7EF70F090001D740DF0A3740AF0E4A329
:0C032800F07B017A00790012000380D8FD
:10018B000202D8E493A3F8E493A34003F68001F2B0
:10019B0008DFF48029E493A3F85407240CC8C33375
:1001AB00C4540F4420C8834004F456800146F6DF44
:1001BB00E4800B010204081020408090055CE47E73
:1001CB00019360BCA3FF543F30E509541FFEE49339
:1001DB00A360010ECF54C025E060A840B8E493A300
:1001EB00FAE493A3F8E493A3C8C582C8CAC583CA2B
:1001FB00F0A3C8C582C8CAC583CADFE9DEE780BEE3
:010579000081
:10004E00E709F608DFFA8046E709F208DFFA803E94
:10005E0088828C83E709F0A3DFFA8032E309F60881
:10006E00DFFA8078E309F208DFFA807088828C83E9
:10007E00E309F0A3DFFA806489828A83E0A3F6089D
:10008E00DFFA805889828A83E0A3F208DFFA804C77
:10009E0080D280FA80C680D4806980F2803380104E
:1000AE0080A680EA809A80A880DA80E280CA8033B7
:1000BE0089828A83ECFAE493A3C8C582C8CCC5832F
:1000CE00CCF0A3C8C582C8CCC583CCDFE9DEE780FF
:1000DE000D89828A83E493A3F608DFF9ECFAA9F07E
:1000EE00EDFB2289828A83ECFAE0A3C8C582C8CCD4
:1000FE00C583CCF0A3C8C582C8CCC583CCDFEADEED
:10010E00E880DB89828A83E493A3F208DFF980CC4E
:10011E0088F0EF60010E4E60C388F0ED2402B40447
:10012E000050B9F582EB2402B4040050AF232345EE
:06013E00822390009E7375
:10014400BB010689828A83E0225002E722BBFE02B9
:09015400E32289828A83E49322EC
:10015D00F8BB010DE58229F582E5833AF583E8F0D8
:10016D00225006E92582C8F622BBFE05E92582C884
:02017D00F2226C
:00000001FF
