:05002600A5A5A5A5A59C
:0E09E10005333443101001052E34431010016D
:100923005396EF43962C5395C3D292D293D294C24B
:100933009543CA2053C9DFD2CD53B2F753B1F7D28F
:0B094300B2120A9DC20AC2CDD292225D
:1007050078227C007D007BFF7A0079267E007F05BC
:1007150012047A7B007A007922752B057F30120747
:10072500DC7B007A007922752B057F10120888E49E
:10073500FF74222FF8E6B4A5040FBF05F4EF640596
:0707450060037F01227F0029
:01074C00228A
:02000E008D263D
:10001000C292120AAA8F27AF26120AAAD292AF273B
:0100200022BD
:0C0A8300C292120AAA7FFF120AAAD292A5
:010A8F002244
:060888008B288A29892A51
:10088E00C292120AAA8F2CE4F52DE52DC3952B509A
:10089E00197FFF120AAAAB28AA29A92A852D8275CB
:0E08AE008300EF1204B9052D80E0D292AF2C2A
:0108BC002219
:0B07D1007B007A00792E752B057F2A33
:0607DC008B288A29892AFE
:1007E200C292120AAA8F2CE4F52DE52DC3952B5047
:1007F20019AB28052AE52AAA297002052914F9123B
:0E08020004A0FF120AAA052D80E0D292AF2CAE
:0108100022C5
:10085100C2CD752B207FA01207DCD2CD20B2FD7F47
:1008610007120A838F1EAD1E7F2712000EE51E3070
:10087100E40A7DFF7FE112000E7F1022E51E30E5C4
:06088100037F20227FFF2F
:01088700224E
:0608BD008B228A2389242E
:1008C3007F07120A838F25AD257F2712000EE525AA
:1008D30030E618AB22AA23A924752B207F611208C6
:0D08E300887DFF7FE112000E7F00227F0163
:0108F00022E5
:1008F100C2CD1207D17D017F2112000E7D017F2221
:1009010012000E7D287F2512000E7D207F311200FE
:100911000E7D0F7F2612000E7D0F7F2012000ED25A
:02092100CD22E5
:10081100C2CD7B007A007933752B057F301207DC5E
:100821001207D17D017F2112000E7D017F2212006E
:100831000E7D1A7F2412000E7D287F2512000E7D69
:100841000F7F2612000E7D0E7F2012000ED2CD22C8
:1009BE00526F636B65725F4C5F58203D2025750941
:1009CE0000526F636B65725F4C5F59203D20257539
:0309DE000D0A00FF
:10074D00750BFF750C09750DBE85410E85420F7B2E
:10075D00017A0079201200AA7B017A007920120912
:10076D0075750BFF750C09750DCF85430E85440FFF
:10077D007B017A0079201200AA7B017A0079200290
:02078D000975EC
:0F0A5600853841853942853A43853B4402074D37
:03000000020550A6
:0C055000787FE4F6D8FD7581480205971D
:05000300007F19DFFE83
:0100080022D5
:0A0AB70000007F027E0FDEFEDFFC70
:010AC1002212
:080AC2007F367EC7DEFEDFFC7B
:010ACA002209
:080ACB007F6C7E91DEFEDFFC72
:010AD3002200
:0E0A650000007F097E687D8BDDFEDEFCDFFA7F
:010A73002260
:0E0A740000007F167E037DE3DDFEDEFCDFFA70
:010A82002251
:10002E00EF1FAA0670011E4A60107C137D88ED1D1D
:0A003E00AA0470011C4A60E880F477
:010048002295
:0209EF00C189BC
:1009FF00AFA253073F8FA27598DA75D7E875D6FF68
:0A0A0F00758E14438E01D2BCD2ACE8
:010A190022BA
:100A1A003009FDC209C2AFEF30E004C29B8002D2A6
:050A2A009BD2AF8F9983
:010A2F0022A4
:100975008B228A238924AB22AA23A9241204A060EE
:10098500130524E5247002052314F91204A0FF12AF
:050995000A1A80E222B5
:03002300020A903E
:0D0A9000309802C298309904C299D2093200
:0409F100021C0000E4
:100A3000438E805389F0758ACD758CD4C28DD2A92E
:030A4000D28C2233
:03000B0002099A4D
:04099A00C0E0C0D029
:10099E00051DE51D7002051CC3E51D94E8E51C94BC
:0B09AE00034008751C00751D00D20CF2
:0509B900D0D0D0E032B7
:0209F500C18AB5
:0D0A9D00E4F5CF75CDC075CED043AF022279
:0D0AAA00200AFDD20A8FCF200AFDAFCF2217
:03004B00020AD4D2
:060AD40075CDC0C20A321C
:0509F700C18B0140006E
:100A4300E4F5947593C3759DC3F5BDF5BE75BC8878
:030A5300D2AD22FF
:03002B000205DCEF
:1005DC00C0E0C0F0C0D075D000C004C005C006C0DB
:1005EC000775BC00E54014601C047032AFBDEF759C
:1005FC00F004A4AEF0ADBE7C002DF539EC3EF53820
:10060C00754001801EAFBDEF75F004A4AEF0ADBE19
:10061C007C002DF53BEC3EF53A7540068005C20B8F
:10062C00754000E5404488F5BCD007D006D005D015
:08063C0004D0D0D0F0D0E03270
:100644004E52465F4341525F534C4156450D0A009A
:1006540044454D4F2056657273696F6E3A20302EB3
:10066400310D0A0053797374656D20496E697420E5
:100674004F4B0D0A004E524632344C303120436801
:1006840065636B0D0A004E524632344C30312045BE
:1006940072726F720D0A004E524632344C30312061
:0506A4004F4B0D0A00A0
:0209FC00C10C2C
:10078F00E4F597F594F593F592F591F596F595F5C2
:10079F00B2F5B1F5B4F5B3F5CAF5C9F5CCF5CBF5AE
:1007AF00E2F5E1D2CCD2AF1209FF7BFF7A06794492
:1007BF001209757BFF7A067954120975120A3002F5
:0207CF000923FC
:1006A90012078F7BFF7A0679681209757BFF7A0634
:1006B9007979800F120705EF600E120A657BFF7AC0
:1006C90006798A12097580EC7BFF7A06799B1209F3
:1006D900751208F1C20CB2CC7B017A0079001208BC
:1006E900BDEF70F090001D740DF0A3740AF0E4A33F
:0C06F900F07B017A00790012097580D8AE
:10055C000206A9E493A3F8E493A34003F68001F206
:10056C0008DFF48029E493A3F85407240CC8C333A0
:10057C00C4540F4420C8834004F456800146F6DF6F
:10058C00E4800B01020408102040809009E1E47E15
:10059C00019360BCA3FF543F30E509541FFEE49364
:1005AC00A360010ECF54C025E060A840B8E493A32B
:1005BC00FAE493A3F8E493A3C8C582C8CAC583CA56
:1005CC00F0A3C8C582C8CAC583CADFE9DEE780BE0E
:0109FE0000F8
:1003AA00E709F608DFFA8046E709F208DFFA803E35
:1003BA0088828C83E709F0A3DFFA8032E309F60822
:1003CA00DFFA8078E309F208DFFA807088828C838A
:1003DA00E309F0A3DFFA806489828A83E0A3F6083E
:1003EA00DFFA805889828A83E0A3F208DFFA804C18
:1003FA0080D280FA80C680D4806980F280338010EF
:10040A0080A680EA809A80A880DA80E280CA803357
:10041A0089828A83ECFAE493A3C8C582C8CCC583CF
:10042A00CCF0A3C8C582C8CCC583CCDFE9DEE7809F
:10043A000D89828A83E493A3F608DFF9ECFAA9F01E
:10044A00EDFB2289828A83ECFAE0A3C8C582C8CC74
:10045A00C583CCF0A3C8C582C8CCC583CCDFEADE8D
:10046A00E880DB89828A83E493A3F208DFF980CCEF
:10047A0088F0EF60010E4E60C388F0ED2402B404E8
:10048A000050B9F582EB2402B4040050AF2323458F
:06049A0082239003FA73B7
:1004A000BB010689828A83E0225002E722BBFE025A
:0904B000E32289828A83E493228D
:1004B900F8BB010DE58229F582E5833AF583E8F079
:1004C900225006E92582C8F622BBFE05E92582C825
:0204D900F2220D
:10004E00E517240BF8E60517227808300702780B1F
:10005E00E475F00112051A0204A02000EB7F2ED2E7
:10006E00008018EF540F2490D43440D4FF30040B8A
:10007E00EF24BFB41A0050032461FFE51860021587
:10008E0018051BE51B7002051A30070D7808E4757C
:10009E00F00112051AEF02050802094E7403D20789
:1000AE008003E4C207F5178B088A09890AE4F5185C
:1000BE00F51AF51BE51860077F2012008980F5758B
:1000CE0019FFC201C200C202C203C205C206C208A3
:1000DE00120057FF700D3007057F0012009AAF1BFC
:1000EE00AE1A22B4255FC2D5C204120057FF24D027
:1000FE00B40A00501A75F00A781830D50508B6FF04
:10010E000106C6A426F620D5047002D20380D92497
:10011E00CFB41A00EF5004C2E5D20402029AD20103
:10012E0080C6D20080C0D20280BCD2D580BAD205A1
:10013E0080B47F201200892002077401B518004098
:10014E00F112004EFF1200890200C2D208D20680C0
:10015E009512004EFB12004EFA12004EF94A4B70E9
:10016E0006796B7A037BFF20022EE518602A7E004B
:10017E008E827583001204DB60060EEE651970F038
:10018E00C2D5EBC0E0EAC0E0E9C0E0EE1202E1D079
:10019E00E0F9D0E0FAD0E0FB1204A0FF60AAEBC0B9
:1001AE00E0EAC0E0E9C0E0120089D0E02401F9D015
:1001BE00E03400FAD0E0FBE5190460DCD519D980F3
:1001CE00877BFF7A0279DDD202809C7910800279DA
:1001DE0008C206C2088008D2D5790A8004790AC2FC
:1001EE00D5E519047002F519E4FAFDFEFF12004E72
:1001FE00FC7B0820011312004EFD7B1030000A120A
:10020E00004EFE12004EFF7B20EC3382D592D5506D
:10021E0013C3E43000069FFFE49EFEE42001039D1D
:10022E00FDE49CFCE4CBF8C201EC700CCFCECDCC3F
:10023E00E824F8F870F38017C3EF33FFEE33FEEDCA
:10024E0033FDEC33FCEB33FB994002FB0FD8E9EBAB
:10025E00300105F8D0E0C448B201C0E00AEC4D4EC2
:10026E004F78207B0070C2EAB5190040BCC0E01286
:10027E0002E3D0F0D0E0200104C4C0E0C4B201C05B
:10028E00F0120072D0F0D5F0EB0200C212052A0176
:10029E005F5301D95801304C012C4201DD4F01E56D
:0F02AE004401E54901454301EB5501CF4601CF1E
:1002BD004501CF47038B5001342D01382E015B2BA7
:1002CD00013C2301592003742A00F4480000015316
:1002DD003F3F3F00790AA2D5200314300509B9101C
:1002ED00020404B9080104A2D5200602500104201D
:1002FD0002689202B518005034C0E07F2030031917
:10030D007F30A20272067205500F12033AC202C26A
:10031D0006C205C2087F30800F300503E9C0E01228
:10032D000089300503D0E0F9D0E0B518CC300517C1
:10033D007F30B9100C1200897F583004077F788008
:10034D0003B908031200893002057F2D0200897F51
:10035D00202008F87F2B2006F322920280CF286EF2
:10036D00756C6C2900D20112004E3001F8C2017873
:10037D001830D50108F60200F42D504349581200EB
:10038D004E2403B405004001E49003869312007AD5
:0D039D00743A12007AD2037518040201D9D7
:1004DB00BB010CE58229F582E5833AF583E02250D6
:1004EB0006E92582F8E622BBFE06E92582F8E22220
:0D04FB00E58229F582E5833AF583E493223A
:10050800BB010689828A83F0225002F722BBFE01D2
:02051800F322CC
:10051A00FAE6FB0808E6F925F0F618E6CA3AF622E2
:10052A00D083D082F8E4937012740193700DA3A360
:10053A0093F8740193F5828883E473740293686074
:06054A00EFA3A3A380DF74
:10094E00EFB40A07740D120959740A309811A89958
:10095E00B8130CC2983098FDA899C298B811F63009
:07096E0099FDC299F59922E1
:00000001FF
